:100000006F00101A6F00C008000000000000000020
:100010006F00001100000000000000000000000060
:100020006F008018000000000000000000000000C9
:100030006F00002000000000000000000000000031
:10004000000000006F0040276F00802F00000000BC
:100050000000000000000000000000006F005003DE
:100060006F0080696F0040366F00803E6F00C046B1
:100070006F00004F6F0040576F00805F6F0040704F
:100080006F008078130000001300000013000000D0
:10009000130101F823201100232221002324310021
:1000A0002326410023285100232A6100232C7100BC
:1000B000232E8100232091022322A1022324B102B6
:1000C0002326C1022328D102232AE102232CF10294
:1000D000232E01032320110523222105232431058A
:1000E0002326410523285105232A6105232C710568
:1000F000232E8105232091072322A1072324B10762
:100100002326C1072328D107232AE107232CF1073F
:1001100073252034F3251034EF0010406F00C07FAA
:10012000130101F823201100232221002324310090
:100130002326410023285100232A6100232C71002B
:10014000232E8100232091022322A1022324B10225
:100150002326C1022328D102232AE102232CF10203
:10016000232E0103232011052322210523243105F9
:100170002326410523285105232A6105232C7105D7
:10018000232E8105232091072322A1072324B107D1
:100190002326C1072328D107232AE107232CF107AF
:1001A000EF00502C6F004077130101F8232011005D
:1001B000232221002324310023264100232851003B
:1001C000232A6100232C7100232E81002320910219
:1001D0002322A1022324B1022326C1022328D10213
:1001E000232AE102232CF102232E010323201105EF
:1001F00023222105232431052326410523285105E7
:10020000232A6105232C7105232E810523209107C4
:100210002322A1072324B1072326C1072328D107BE
:10022000232AE107232CF107EF00100F6F00C06EA7
:10023000130101F82320110023222100232431007F
:100240002326410023285100232A6100232C71001A
:10025000232E8100232091022322A1022324B10214
:100260002326C1022328D102232AE102232CF102F2
:10027000232E0103232011052322210523243105E8
:100280002326410523285105232A6105232C7105C6
:10029000232E8105232091072322A1072324B107C0
:1002A0002326C1072328D107232AE107232CF1079E
:1002B000EF00D0436F004066130101F823201100C6
:1002C000232221002324310023264100232851002A
:1002D000232A6100232C7100232E81002320910208
:1002E0002322A1022324B1022326C1022328D10202
:1002F000232AE102232CF102232E010323201105DE
:1003000023222105232431052326410523285105D5
:10031000232A6105232C7105232E810523209107B3
:100320002322A1072324B1072326C1072328D107AD
:10033000232AE107232CF107EF00D03E6F00C05DB8
:10034000130101F82320110023222100232431006E
:100350002326410023285100232A6100232C710009
:10036000232E8100232091022322A1022324B10203
:100370002326C1022328D102232AE102232CF102E1
:10038000232E0103232011052322210523243105D7
:100390002326410523285105232A6105232C7105B5
:1003A000232E8105232091072322A1072324B107AF
:1003B0002326C1072328D107232AE107232CF1078D
:1003C000EF0090346F004055130101F82320110015
:1003D0002322210023243100232641002328510019
:1003E000232A6100232C7100232E810023209102F7
:1003F0002322A1022324B1022326C1022328D102F1
:10040000232AE102232CF102232E010323201105CC
:1004100023222105232431052326410523285105C4
:10042000232A6105232C7105232E810523209107A2
:100430002322A1072324B1072326C1072328D1079C
:10044000232AE107232CF107EF1040696F00C04C0D
:10045000130101F82320110023222100232431005D
:100460002326410023285100232A6100232C7100F8
:10047000232E8100232091022322A1022324B102F2
:100480002326C1022328D102232AE102232CF102D0
:10049000232E0103232011052322210523243105C6
:1004A0002326410523285105232A6105232C7105A4
:1004B000232E8105232091072322A1072324B1079E
:1004C0002326C1072328D107232AE107232CF1077C
:1004D000EF00D0286F004044130101F823201100E1
:1004E0002322210023243100232641002328510008
:1004F000232A6100232C7100232E810023209102E6
:100500002322A1022324B1022326C1022328D102DF
:10051000232AE102232CF102232E010323201105BB
:1005200023222105232431052326410523285105B3
:10053000232A6105232C7105232E81052320910791
:100540002322A1072324B1072326C1072328D1078B
:10055000232AE107232CF107EF0010226F00C03B94
:10056000130101F82320110023222100232431004C
:100570002326410023285100232A6100232C7100E7
:10058000232E8100232091022322A1022324B102E1
:100590002326C1022328D102232AE102232CF102BF
:1005A000232E0103232011052322210523243105B5
:1005B0002326410523285105232A6105232C710593
:1005C000232E8105232091072322A1072324B1078D
:1005D0002326C1072328D107232AE107232CF1076B
:1005E000EF00501B6F004033130101F8232011006E
:1005F00023222100232431002326410023285100F7
:10060000232A6100232C7100232E810023209102D4
:100610002322A1022324B1022326C1022328D102CE
:10062000232AE102232CF102232E010323201105AA
:1006300023222105232431052326410523285105A2
:10064000232A6105232C7105232E81052320910780
:100650002322A1072324B1072326C1072328D1077A
:10066000232AE107232CF107EF0090146F00C02A22
:10067000130101F82320110023222100232431003B
:100680002326410023285100232A6100232C7100D6
:10069000232E8100232091022322A1022324B102D0
:1006A0002326C1022328D102232AE102232CF102AE
:1006B000232E0103232011052322210523243105A4
:1006C0002326410523285105232A6105232C710582
:1006D000232E8105232091072322A1072324B1077C
:1006E0002326C1072328D107232AE107232CF1075A
:1006F000EF00D00D6F004022130101F823201100FC
:1007000023222100232431002326410023285100E5
:10071000232A6100232C7100232E810023209102C3
:100720002322A1022324B1022326C1022328D102BD
:10073000232AE102232CF102232E01032320110599
:100740002322210523243105232641052328510591
:10075000232A6105232C7105232E8105232091076F
:100760002322A1072324B1072326C1072328D10769
:10077000232AE107232CF107EF00807C6F00C019CA
:10078000130101F82320110023222100232431002A
:100790002326410023285100232A6100232C7100C5
:1007A000232E8100232091022322A1022324B102BF
:1007B0002326C1022328D102232AE102232CF1029D
:1007C000232E010323201105232221052324310593
:1007D0002326410523285105232A6105232C710571
:1007E000232E8105232091072322A1072324B1076B
:1007F0002326C1072328D107232AE107232CF10749
:10080000EF0010006F004011130101F823201100C8
:1008100023222100232431002326410023285100D4
:10082000232A6100232C7100232E810023209102B2
:100830002322A1022324B1022326C1022328D102AC
:10084000232AE102232CF102232E01032320110588
:100850002322210523243105232641052328510580
:10086000232A6105232C7105232E8105232091075E
:100870002322A1072324B1072326C1072328D10758
:10088000232AE107232CF107EF0040796F00C0080D
:10089000130101F823201100232221002324310019
:1008A0002326410023285100232A6100232C7100B4
:1008B000232E8100232091022322A1022324B102AE
:1008C0002326C1022328D102232AE102232CF1028C
:1008D000232E010323201105232221052324310582
:1008E0002326410523285105232A6105232C710560
:1008F000232E8105232091072322A1072324B1075A
:100900002326C1072328D107232AE107232CF10737
:10091000EF0080726F00400083200100032141003E
:10092000832181000322C1008322010103234101AD
:10093000832381010324C101832401020325410291
:10094000832581020326C102832601030327410375
:10095000832781030328C103832801040329410459
:1009600083298104032AC104832A0105032B41053D
:10097000832B8105032CC105832C0106032D410621
:10098000832D8106032EC106832E0107032F410705
:10099000832F81071301010873002030000000003D
:1009A000735000307350403097F0FFFF93808065A4
:1009B000B7C200029382C2FF23A00200F3221030CC
:1009C00093F2120063960202F322503093F2320047
:1009D00013031000639E6200F322503093F2C2FFB3
:1009E00017F3FFFF13034362639862046F00000173
:1009F00097F2FFFF93824261739052301717000005
:100A000013074720971700009387C71F1718000088
:100A10001308481F6308F70063860701970000006A
:100A2000E780C009972100009381C19DEF0000017C
:100A3000138101106F0000447300100093820000C6
:100A40009387018E1388019063840701EF00C0042F
:100A50009387018C1388018E638C0701EF00C0031C
:100A6000938701901388019063840701EF00C0020F
:100A700017170000130707199717000093878718A7
:100A80001388018C6306F70063840701EF00C0023E
:100A900093800200678000006364F804B368F80084
:100AA00093F83800634E100323A007009387470094
:100AB000E3CC07FF678000006364F802B368F800C6
:100AC00093F83800634E10018328070023A0170114
:100AD0009387470013074700E3C807FF6F008000B4
:100AE0006F00000067800000130101FF23268100D2
:100AF00013040101B767000003A70702B7670000EE
:100B00001377D7FF23A0E702130000000324C100DE
:100B10001301010167800000130101FD232611026A
:100B2000232481021304010393070008F3B747301D
:100B30002326F4FEB7C70002938787FF83A7070029
:100B40002320F4FE232204FE6F00C0059387818CCE
:100B500003A8470083A707001387018C832507009C
:100B600003264700B386B700138506003335F5002A
:100B70003307C800B307E500138707009387060013
:100B8000130807001387818C2320F7002322070115
:100B90009387018D83A70700138717009387018D23
:100BA00023A0E700832704FE032844FE930550009A
:100BB00013060000B386B700138506003335F50031
:100BC0003307C800B307E500138707009387818CBC
:100BD00003A8470083A70700930507001306080032
:100BE000E366B6F693050700130608006396C50092
:100BF00013870600E3ECE7F4B7470002938747004A
:100C00001307F0FF23A0E7009387818C03A8470018
:100C100083A70700374700022320F7009387818CC2
:100C200003A8470083A7070013530800930300009D
:100C3000B7470002938747001307030023A0E7008C
:100C4000EF00002993070008F3A74730232EF4FC98
:100C5000130000008320C102032481021301010359
:100C600067800000130101FF232611002324810067
:100C700013040101EF004024EFF01FE71300000010
:100C80008320C1000324810013010101678000005B
:100C9000130101FC232E1102232C810213040104F1
:100CA00093070500A307F4FCF32740F12326F4FE85
:100CB0008327C4FE2320F4FE232204FE0347F4FC12
:100CC0009307F00163F4E700730010000347F4FC9E
:100CD0009307F00063E4E700730010008347F4FC1F
:100CE000938707FFA30FF4FC8347F4FD1717000059
:100CF000130747ED93972700B307F70083A7070073
:100D0000E7800700130000008320C1030324810350
:100D10001301010467800000130101FA232E11045E
:100D2000232C8104130401062326A4FA2324B4FAF5
:100D30000327C4FA93070700130800003707008051
:100D400033F7E7002324E4FE937708002326F4FE1C
:100D5000832784FE0327C4FEB3E7E7006380070A06
:100D60000327C4FAB707008093C707FFB377F700DC
:100D7000638607020327C4FAB707008093C707FEFC
:100D8000B377F700639C07008327C4FA93F7F70F44
:100D900013850700EFF0DFEF6F00800C0327C4FA24
:100DA000B707008093C7F7FF3377F7009307B000CA
:100DB0006316F700EF0080136F00800A0327C4FA60
:100DC000B707008093C7F7FF3377F700930730002A
:100DD0006316F700EFF01FE96F0080080327C4FADD
:100DE000B707008093C7F7FF3377F70093077000CA
:100DF0006318F706EFF05FD26F008006F3274034E8
:100E00002322F4FE832744FE2320F4FEF32730340C
:100E1000232EF4FC8327C4FD232CF4FCF32750304D
:100E2000232AF4FC832744FD2328F4FCF327003411
:100E30002326F4FC8327C4FC2324F4FCF32700308E
:100E40002322F4FC832744FC2320F4FCF3271034F2
:100E5000232EF4FA8327C4FB232CF4FA730010002A
:100E6000130000008320C10503248105130101063E
:100E700067800000130101FF232611002324810055
:100E800013040101EF00104B130000008320C10088
:100E9000032481001301010167800000130101FF99
:100EA0002326810013040101130000000324C10064
:100EB0001301010167800000130101FF23261100C7
:100EC00023248100130401011305A000EF00801802
:100ED000130101FF23268100130401011300000008
:100EE0000324C1001301010167800000130101FF09
:100EF0002326810013040101130000000324C10014
:100F00001301010167800000130101FF2326810006
:100F100013040101130000000324C10013010101A7
:100F200067800000130101FF2326810013040101E3
:100F3000130000000324C1001301010167800000B9
:100F4000130101FF23268100130401011300000097
:100F50000324C1001301010167800000130101FF98
:100F60002326810013040101130000000324C100A3
:100F70001301010167800000130101FF2326810096
:100F800013040101130000000324C1001301010137
:100F900067800000130101FF232681001304010173
:100FA000130000000324C100130101016780000049
:100FB000130101FF23268100130401011300000027
:100FC0000324C1001301010167800000130101FF28
:100FD0002326810013040101130000000324C10033
:100FE0001301010167800000130101FF2326110096
:100FF00023248100130401011305A000EF008005E4
:10100000130101FF232681001304010113000000D6
:101010000324C1001301010167800000130101FFD7
:101020002326810013040101130000000324C100E2
:101030001301010167800000130101FF23268100D5
:1010400013040101130000000324C1001301010176
:1010500067800000130101FE232E810013040102AA
:101060002326A4FE6F000000130101FE232E810041
:1010700013040102F36704302326F4FE130000007A
:101080000324C1011301010267800000130101FF65
:10109000232611002324810013040101EFF0DFFC5B
:1010A000130000008320C10003248100130101010B
:1010B000678000002320B50067800000032505003D
:1010C00067800000138E0600331EBE00337ECE0004
:1010D000032305009303060093C3F3FF33737300E8
:1010E0003363C301232065006780000003250500EA
:1010F0003375C5003355B500678000002310B50077
:10110000678000000315050067800000138E06004D
:10111000331EBE00337ECE0003130500930306008A
:1011200093C3F3FF337373003363C301231065006C
:1011300067800000031505003375C5003355B50001
:10114000678000002300B5006780000003050500EC
:1011500067800000138E0600331EBE00337ECE0073
:10116000030305009303060093C3F3FF3373730077
:101170003363C30123006500678000000305050099
:101180003375C5003355B50067800000130101FDBC
:10119000232611022324810213040103232EA4FC1D
:1011A000232CB4FC9307060013870600231BF4FCD2
:1011B00093070700A30AF4FC8327C4FD6394070088
:1011C00073001000034754FD9307700063F4E700B9
:1011D00073001000035764FDB72700006364F70035
:1011E000730010008327C4FD63840716034754FD72
:1011F0009307700063EEE714035764FDB727000000
:101200006378F714832784FD13878700835764FD71
:1012100093F7F70F9385070013050700EFF09FF290
:10122000832784FD9386C700034754FD835764FDDD
:1012300093D7574093F7877FB367F70093850700ED
:1012400013850600EFF01FF08327C4FD032784FDFC
:1012500023A0E7008327C4FD83A7070093878700A7
:1012600013850700EFF09FEE930705002316F4FEA9
:101270008327C4FD83A707009387C7001385070052
:10128000EFF0DFEC93070500A305F4FE8347B4FEFF
:1012900093F787FF2305F4FE8347A4FE9397070186
:1012A00093D7070193975700139707011357070127
:1012B0008357C4FEB367F7002316F4FE8347B4FEDA
:1012C00093F77700A305F4FE0357C4FE835764FD2C
:1012D0006304F700730010000347B4FE834754FD16
:1012E0006304F700730010008327C4FD83A7070081
:1012F0009387070113850700EFF05FE5930705006B
:1013000093F72700A307F4FE6F0080038327C4FD33
:1013100083A707009387470013850700EFF01FE3BB
:101320008327C4FD83A70700938707011385070060
:10133000EFF0DFE19307050093F72700A307F4FE22
:101340008347F4FEE39407FC8327C4FD2382070050
:10135000130000008320C102032481021301010352
:1013600067800000130101FD23261102232481025E
:1013700013040103232EA4FC232CB4FC8327C4FDF7
:101380006394070073001000832784FD63940700B3
:10139000730010008327C4FD63800708832784FD42
:1013A000638C0706232604FE6F00C0058327C4FD57
:1013B00083A707009387070113850700EFF01FD964
:1013C0009307050093F71700A305F4FE8347B4FEC7
:1013D000E38E07FC8327C4FD83A60700032784FD53
:1013E0008327C4FEB307F70083C707009385070070
:1013F00013850600EFF01FD58327C4FE93871700DF
:101400002326F4FE032784FD8327C4FEB307F700D9
:1014100083C70700E39C07F8130000008320C10284
:10142000032481021301010367800000130101FD01
:101430002326110223248102130401032326A4FE80
:101440002324B4FE930706002320D4FE232EE4FCBD
:10145000A303F4FE9387418D83A707000327C4FEEF
:101460006314F70073001000032704FE9307900035
:1014700063F4E700730010008327C4FD6394070042
:10148000730010008327C4FE032784FE23A0E70017
:10149000832784FE938787009306000013062000AD
:1014A0009305100013850700EFF0DFC1832784FE4A
:1014B0009387870093060000130610009305000031
:1014C00013850700EFF01FC0832784FE9387070171
:1014D0009305100013850700EFF0DFBD832784FE1E
:1014E0009387C700832504FE13850700EFF09FBC98
:1014F0008325C4FD032584FEEFF0DFBB834774FE24
:1015000063920702832784FE938787009306000077
:10151000130640009305200013850700EFF09FBAE3
:101520006F000002832784FE9387870093061000D4
:10153000130640009305200013850700EFF09FB8C5
:10154000130000008320C102032481021301010360
:1015500067800000130101FE232E1100232C81005F
:10156000130401022326A4FE9387418D83A707005D
:101570000327C4FE6314F700730010008327C4FE22
:1015800083A70700938787009306100013061000B7
:101590009305000013850700EFF0DFB21300000091
:1015A0008320C1010324810113010102678000002F
:1015B000130101FE232E1100232C810013040102CC
:1015C0002326A4FE9387418D83A707000327C4FE2B
:1015D0006314F700730010008327C4FE83A707007D
:1015E00093878700930610001306200093051000D0
:1015F00013850700EFF01FAD130000008320C10129
:10160000032481011301010267800000130101FE20
:10161000232E1100232C8100130401022326A4FE93
:101620009387418D83A707000327C4FE6314F70047
:10163000730010008327C4FE83A707009387070168
:101640009305100013850700EFF0DFA613000000DC
:101650008320C1010324810113010102678000007E
:10166000130101FD23261102232481021304010327
:10167000232EA4FC232CB4FC232AC4FCA30704FEC1
:10168000832784FD2324F4FE8327C4FD032784FDE0
:1016900023A0E7008327C4FD032744FD23A2E7001E
:1016A000A30704FE832784FD2324F4FE6F00800239
:1016B00093050000032584FEEFF0DFA8832784FE56
:1016C000938747002324F4FE8347F4FE9387170093
:1016D000A307F4FE0347F4FE9307F001E3FAE7FCE7
:1016E0008327C4FD83A74700130710006386E70222
:1016F00063820706130720006390E70C8327C4FD6D
:1017000083A70700938707089305F0FF1385070059
:10171000EFF05F9A6F00C00A8327C4FD83A707001C
:1017200013870708B70701009385F7FF1305070024
:10173000EFF0DF9C8327C4FD83A7070013874708CA
:10174000B70701009385F7FF13050700EFF01F9B14
:101750006F0000078327C4FD83A70700938707084E
:101760009305F00F13850700EFF0DF9D8327C4FD7D
:1017700083A70700938747089305F00F1385070099
:10178000EFF05F9C8327C4FD83A70700938787083A
:101790009305F00F13850700EFF0DF9A8327C4FD50
:1017A00083A707009387C7089305F00F13850700E9
:1017B000EFF05F996F00C00073001000130000008D
:1017C000130000008320C1020324810213010103DE
:1017D00067800000130101FE232E1100232C8100DD
:1017E000130401022326A4FE2324B4FE8327C4FE8F
:1017F00083A74700130710006386E702638C070680
:10180000130720006390E7108327C4FE83A7070017
:101810009387070A832584FE13850700EFF09F89CD
:101820006F00C00E8327C4FE83A707009387070AB3
:10183000032784FE131707011357070193050700B9
:1018400013850700EFF09F8B8327C4FE83A7070053
:101850001387470A832784FE93D7070193970701CD
:1018600093D707019385070013050700EFF01F8941
:101870006F00C0098327C4FE83A707009387070A68
:10188000032784FE1377F70F9305070013850700DE
:10189000EFF05F8B8327C4FE83A707001387470AF7
:1018A000832784FE93D7870093F7F70F938507006C
:1018B00013050700EFF01F898327C4FE83A70700E5
:1018C0001387870A832784FE93D7070193F7F70FBF
:1018D0009385070013050700EFF0DF868327C4FE1A
:1018E00083A707001387C70A832784FE93D787013E
:1018F00093F7F70F9385070013050700EFF09F8418
:101900006F00C00073001000130000000325C4FE28
:10191000EF00800213070500832784FE6384E7003D
:1019200073001000130000008320C1010324810113
:101930001301010267800000130101FD232611023B
:101940002324810213040103232EA4FC232604FE76
:101950008327C4FD83A74700130710006386E702AF
:1019600063800708130720006394E7128327C4FDF0
:1019700083A707009387070A13850700EFF00FF48A
:101980002326A4FE6F0040118327C4FD83A7070010
:101990009387070A13850700EFF0CFF6930705003A
:1019A000138707008327C4FEB3E7E7002326F4FE6E
:1019B0008327C4FD83A707009387470A1385070081
:1019C000EFF04FF493070500939707011387070083
:1019D0008327C4FEB3E7E7002326F4FE6F00C00BA5
:1019E0008327C4FD83A707009387070A1385070091
:1019F000EFF04FF193070500138707008327C4FE1C
:101A0000B3E7E7002326F4FE8327C4FD83A707007E
:101A10009387470A13850700EFF0CFEE9307050081
:101A200093978700138707008327C4FEB3E7E70077
:101A30002326F4FE8327C4FD83A707009387870A24
:101A400013850700EFF00FEC93070500939707014C
:101A5000138707008327C4FEB3E7E7002326F4FEBD
:101A60008327C4FD83A707009387C70A1385070050
:101A7000EFF04FE99307050093978701138707005D
:101A80008327C4FEB3E7E7002326F4FE6F00C000FF
:101A900073001000130000008327C4FE13850700A5
:101AA0008320C10203248102130101036780000027
:101AB000130101FD2326810213040103232EA4FC3C
:101AC0008327C4FDF3A747302326F4FE130000004C
:101AD0000324C1021301010367800000130101FF09
:101AE0002326110023248100130401019387818D93
:101AF00083A7070013C7F7009387818D23A0E70012
:101B00009387818D83A70700938507001385018E36
:101B1000EFF05FCC1385818EEFF05FAF930700008D
:101B2000138507008320C1000324810013010101F4
:101B300067800000130101FF232611002324810088
:101B400013040101930610001306A001B7050071EC
:101B50001385C18EEFF08FE3970500009385850A0A
:101B60001385C18EEFF01F8037050001EFF05FF4A1
:101B700013062000B70500751385018EEFF05FAEE8
:101B8000930500001385018EEFF0DFC4B747010015
:101B90001387A7C99306900013060000B7050073CA
:101BA0001385818EEFF09F88EFF04FCE1385818EE5
:101BB000EFF01FA01385818EEFF0DF996F0000001A
:101BC000240F0080080F0080400F00803810008034
:101BD000E80F0080E80F0080E80F0080E80F008029
:101BE000DC1A00805C0F0080780F0080940F00806A
:101BF000B00F0080CC0F0080001000801C1000800F
:101C00000D0A0D0A2A2A2A2A2A2A2A2A2A2A2A2AAE
:101C10002A2A20204D692D5620436F726554696D24
:101C200065723A2054696D657220496E74657272EE
:101C3000757074204578616D706C652050726F6AA4
:101C400065637420202A2A2A2A2A2A2A2A2A2A2A4A
:101C50002A2A2A0D0A0D0A0D0A546869732065782C
:101C6000616D706C652070726F6A65637420646565
:101C70006D6F6E737472617465732074686520751E
:101C80007365206F662074686520436F72655469C0
:101C90006D657220647269766572206F706572611D
:101CA00074696E6720696E0D0A74696D65722069CA
:101CB0006E74657272757074206D6F64650D0A00C4
:040000058000000077
:00000001FF
