:100000006F0010016F00C00700000000000000003A
:100010006F00C010000000000000000000000000A1
:100020006F00401800000000000000000000000009
:100030006F00C01F00000000000000000000000072
:10004000000000006F0000276F00402F000000003C
:1000500000000000000000000000000000000000A0
:10006000000000006F0000366F00403E6F008046C9
:100070006F00C04E6F0000576F00405F6F008067D9
:10008000130101F81300000013000000130000002A
:1000900023201100232221002324310023264100A4
:1000A00023285100232A6100232C7100232E810074
:1000B000232091022322A1022324B1022326C1027C
:1000C0002328D102232AE102232CF102232E01034B
:1000D0002320110523222105232431052326410550
:1000E00023285105232A6105232C7105232E810520
:1000F000232091072322A1072324B1072326C10728
:100100002328D107232AE107232CF1077325203464
:10011000F3251034EF00D0226F004066130101F880
:100120002320110023222100232431002326410013
:1001300023285100232A6100232C7100232E8100E3
:10014000232091022322A1022324B1022326C102EB
:100150002328D102232AE102232CF102232E0103BA
:1001600023201105232221052324310523264105BF
:1001700023285105232A6105232C7105232E81058F
:10018000232091072322A1072324B1072326C10797
:100190002328D107232AE107232CF107EF0090172A
:1001A0006F00C05D130101F82320110023222100FC
:1001B000232431002326410023285100232A6100F3
:1001C000232C7100232E8100232091022322A102DF
:1001D0002324B1022326C1022328D102232AE102CB
:1001E000232CF102232E01032320110523222105B4
:1001F000232431052326410523285105232A61059F
:10020000232C7105232E8105232091072322A1078A
:100210002324B1072326C1072328D107232AE10776
:10022000232CF107EF0050066F004055130101F831
:100230002320110023222100232431002326410002
:1002400023285100232A6100232C7100232E8100D2
:10025000232091022322A1022324B1022326C102DA
:100260002328D102232AE102232CF102232E0103A9
:1002700023201105232221052324310523264105AE
:1002800023285105232A6105232C7105232E81057E
:10029000232091072322A1072324B1072326C10786
:1002A0002328D107232AE107232CF107EF10806AC6
:1002B0006F00C04C130101F82320110023222100FC
:1002C000232431002326410023285100232A6100E2
:1002D000232C7100232E8100232091022322A102CE
:1002E0002324B1022326C1022328D102232AE102BA
:1002F000232CF102232E01032320110523222105A3
:10030000232431052326410523285105232A61058D
:10031000232C7105232E8105232091072322A10779
:100320002324B1072326C1072328D107232AE10765
:10033000232CF107EF10C0636F004044130101F854
:1003400023201100232221002324310023264100F1
:1003500023285100232A6100232C7100232E8100C1
:10036000232091022322A1022324B1022326C102C9
:100370002328D102232AE102232CF102232E010398
:10038000232011052322210523243105232641059D
:1003900023285105232A6105232C7105232E81056D
:1003A000232091072322A1072324B1072326C10775
:1003B0002328D107232AE107232CF107EF10005D42
:1003C0006F00C03B130101F82320110023222100FC
:1003D000232431002326410023285100232A6100D1
:1003E000232C7100232E8100232091022322A102BD
:1003F0002324B1022326C1022328D102232AE102A9
:10040000232CF102232E0103232011052322210591
:10041000232431052326410523285105232A61057C
:10042000232C7105232E8105232091072322A10768
:100430002324B1072326C1072328D107232AE10754
:10044000232CF107EF1040566F004033130101F8E1
:1004500023201100232221002324310023264100E0
:1004600023285100232A6100232C7100232E8100B0
:10047000232091022322A1022324B1022326C102B8
:100480002328D102232AE102232CF102232E010387
:10049000232011052322210523243105232641058C
:1004A00023285105232A6105232C7105232E81055C
:1004B000232091072322A1072324B1072326C10764
:1004C0002328D107232AE107232CF107EF10804FBF
:1004D0006F00C02A130101F82320110023222100FC
:1004E000232431002326410023285100232A6100C0
:1004F000232C7100232E8100232091022322A102AC
:100500002324B1022326C1022328D102232AE10297
:10051000232CF102232E0103232011052322210580
:10052000232431052326410523285105232A61056B
:10053000232C7105232E8105232091072322A10757
:100540002324B1072326C1072328D107232AE10743
:10055000232CF107EF10C0486F004022130101F86F
:1005600023201100232221002324310023264100CF
:1005700023285100232A6100232C7100232E81009F
:10058000232091022322A1022324B1022326C102A7
:100590002328D102232AE102232CF102232E010376
:1005A000232011052322210523243105232641057B
:1005B00023285105232A6105232C7105232E81054B
:1005C000232091072322A1072324B1072326C10753
:1005D0002328D107232AE107232CF107EF1000423B
:1005E0006F00C019130101F82320110023222100FC
:1005F000232431002326410023285100232A6100AF
:10060000232C7100232E8100232091022322A1029A
:100610002324B1022326C1022328D102232AE10286
:10062000232CF102232E010323201105232221056F
:10063000232431052326410523285105232A61055A
:10064000232C7105232E8105232091072322A10746
:100650002324B1072326C1072328D107232AE10732
:10066000232CF107EF10403B6F004011130101F8FC
:1006700023201100232221002324310023264100BE
:1006800023285100232A6100232C7100232E81008E
:10069000232091022322A1022324B1022326C10296
:1006A0002328D102232AE102232CF102232E010365
:1006B000232011052322210523243105232641056A
:1006C00023285105232A6105232C7105232E81053A
:1006D000232091072322A1072324B1072326C10742
:1006E0002328D107232AE107232CF107EF108034B8
:1006F0006F00C008130101F82320110023222100FC
:10070000232431002326410023285100232A61009D
:10071000232C7100232E8100232091022322A10289
:100720002324B1022326C1022328D102232AE10275
:10073000232CF102232E010323201105232221055E
:10074000232431052326410523285105232A610549
:10075000232C7105232E8105232091072322A10735
:100760002324B1072326C1072328D107232AE10721
:10077000232CF107EF10C02D6F00400083200100F3
:1007800003214100832181000322C1008322010152
:1007900003234101832381010324C1018324010236
:1007A00003254102832581020326C102832601031A
:1007B00003274103832781030328C10383280104FE
:1007C0000329410483298104032AC104832A0105E2
:1007D000032B4105832B8105032CC105832C0106C6
:1007E000032D4106832D8106032EC106832E0107AA
:1007F000032F4107832F8107130101087300203065
:0408000000000000F4
:10081000735000307350403097F0FFFF9380807E1C
:10082000F322103093F2120063960202F32250304A
:1008300093F2320013031000639E6200F3225030E3
:1008400093F2C2FF17F3FFFF1303037C6398620464
:100850006F00000197F2FFFF9382027B739052308A
:100860001717000013070759971700009387875839
:1008700017180000130808596308F700638607017A
:1008800097000000E780400997210000938181D6FE
:10089000EF000001138101C86F0080517300100048
:1008A0009382000093870183138801886384070182
:1008B000EF0040049387018113880183638C070153
:1008C000EF00400393870188138801886384070140
:1008D000EF00400213870181938701811388018112
:1008E0006306F70063840701EF00C00293800200F3
:1008F000678000006364F804B368F80093F8380078
:10090000634E100323A0070093874700E3CC07FF43
:10091000678000006364F802B368F80093F8380059
:10092000634E10018328070023A017019387470017
:1009300013074700E3C807FF6F0080006F00000047
:1009400067800000130101FF2326810013040101C9
:10095000B767000003A70702B76700001377D7FF48
:1009600023A0E702130000000324C10013010101CA
:1009700067800000130101FE232E81001304010291
:10098000F36704302326F4FE130000000324C101A2
:100990001301010267800000130101FD23261102EB
:1009A0002324810223222103232031031304010382
:1009B000232EA4FC930710002326F4FEB757000251
:1009C00083A70700938507000325C4FDEF10C01D12
:1009D000930705001389070093090000971700008B
:1009E0009387474223A0270123A2370197170000CE
:1009F0009387474183A6070003A747009387060014
:100A0000B3E7E70063820706B7C70002938787FF53
:100A100003A8470083A70700171700001307873EA6
:100A2000832507000326470037450002B386B70039
:100A300093880600B3B8F8003307C800B387E8000E
:100A40001387070093870600130807002320F5008B
:100A50002322050193070008F3A747302324F4FE5F
:100A6000EFF05FF1232604FE8327C4FE1385070001
:100A70008320C10203248102032941028329010248
:100A80001301010367800000130101FE232E1100F2
:100A9000232C81001304010293070008F3B74730A9
:100AA0002326F4FEEF00907CB7C70002938787FFF0
:100AB00003A8470083A70700171700001307873410
:100AC000832507000326470037450002B386B70099
:100AD00093880600B3B8F8003307C800B387E8006E
:100AE0001387070093870600130807002320F500EB
:100AF0002322050193070008F3A747302324F4FEBF
:100B0000130000008320C1010324810113010102AD
:100B100067800000130101FF2326110023248100B8
:100B200013040101EF009060EFF0DFE1130000001B
:100B30008320C100032481001301010167800000AC
:100B4000130101FB2326110423248104130401054E
:100B5000232EA4FA232CB4FA8327C4FB63D2070202
:100B60000327C4FBB707008093C7F7FF3377F7006D
:100B70009307B0006316F700EF00D05D6F0000220E
:100B80008327C4FB63D207020327C4FBB707008097
:100B900093C7F7FF3377F700930730006316F7002A
:100BA000EFF05FF76F00801F8327C4FB63D207025B
:100BB0000327C4FBB707008093C7F7FF3377F7001D
:100BC000930770006316F700EFF01FEC6F00001D35
:100BD0008327C4FB63D207020327C4FBB707008047
:100BE00093C7F7FF3377F700930780016316F70089
:100BF000EF00905B6F00801A8327C4FB63D207026B
:100C00000327C4FBB707008093C7F7FF3377F700CC
:100C1000930790016316F700EF00D05A6F00001899
:100C20008327C4FB63D207020327C4FBB7070080F6
:100C300093C7F7FF3377F7009307A0016316F70018
:100C4000EF00105A6F0080158327C4FB63D20702A0
:100C50000327C4FBB707008093C7F7FF3377F7007C
:100C60009307B0016316F700EF0050596F000013AF
:100C70008327C4FB63D207020327C4FBB7070080A6
:100C800093C7F7FF3377F7009307C0016316F700A8
:100C9000EF0090586F0080108327C4FB63D20702D7
:100CA0000327C4FBB707008093C7F7FF3377F7002C
:100CB0009307D0016316F700EF00D0576F00000EC6
:100CC0008327C4FB63D207020327C4FBB707008056
:100CD00093C7F7FF3377F7009307E0016316F70038
:100CE000EF0010576F00800B8327C4FB63D207020D
:100CF0000327C4FBB707008093C7F7FF3377F700DC
:100D0000930700016316F700EF0090466F0000099B
:100D10008327C4FB63D207020327C4FBB707008005
:100D200093C7F7FF3377F700930710016316F700B7
:100D3000EF00D0456F008006F32740342326F4FEF1
:100D40008327C4FE2324F4FEF32730342322F4FE49
:100D5000832744FE2320F4FEF3275030232EF4FC97
:100D60008327C4FD232CF4FCF3270034232AF4FC4E
:100D7000832744FD2328F4FCF32700302326F4FCCA
:100D80008327C4FC2324F4FCF32710342322F4FC2F
:100D9000832744FC2320F4FC7300100013000000A0
:100DA0008320C1040324810413010105678000002E
:100DB000130101FF232611002324810013040101E4
:100DC000EF009050130000008320C1000324810035
:100DD0001301010167800000130101FF2326810038
:100DE00013040101130000000324C10013010101D9
:100DF00067800000130101FF2326110023248100D6
:100E000013040101EFF01FB7130000008320C1009D
:100E10000324810013010101678000002320B50035
:100E2000678000000325050067800000138E060020
:100E3000331EBE00337ECE0003230500930306005D
:100E400093C3F3FF337373003363C301232065003F
:100E500067800000032505003375C5003355B500D4
:100E6000678000002310B5006780000003150500AF
:100E700067800000138E0600331EBE00337ECE0056
:100E8000031305009303060093C3F3FF337373004A
:100E90003363C3012310650067800000031505005C
:100EA0003375C5003355B500678000002300B500D9
:100EB000678000000305050067800000138E0600B0
:100EC000331EBE00337ECE000303050093030600ED
:100ED00093C3F3FF337373003363C30123006500CF
:100EE00067800000030505003375C5003355B50064
:100EF00067800000130101FD2326110223248102D3
:100F000013040103232EA4FC232CB4FC9307060036
:100F100013870600231BF4FC93070700A30AF4FCC5
:100F20008327C4FD6394070073001000034754FD3A
:100F30009307700063F4E70073001000035764FD2B
:100F4000B72700006364F700730010008327C4FD17
:100F500063840716034754FD9307700063EEE7149C
:100F6000035764FDB72700006378F714832784FDD7
:100F700013878700835764FD93F7F70F9385070066
:100F800013050700EFF09FF2832784FD9386C700C7
:100F9000034754FD835764FD93D7574093F7877FEA
:100FA000B367F7009385070013850600EFF01FF085
:100FB0008327C4FD032784FD23A0E7008327C4FD06
:100FC00083A707009387870013850700EFF09FEE44
:100FD000930705002316F4FE8327C4FD83A70700AB
:100FE0009387C70013850700EFF0DFEC9307050038
:100FF000A305F4FE8347B4FE93F787FF2305F4FEB1
:101000008347A4FE9397070193D70701939757004F
:1010100013970701135707018357C4FEB367F700FF
:101020002316F4FE8347B4FE93F77700A305F4FE7E
:101030000357C4FE835764FD6304F7007300100078
:101040000347B4FE834754FD6304F70073001000A8
:101050008327C4FD83A70700938707011385070033
:10106000EFF05FE59307050093F72700A307F4FE71
:101070006F0080038327C4FD83A707009387470081
:1010800013850700EFF01FE38327C4FD83A7070044
:101090009387070113850700EFF0DFE19307050051
:1010A00093F72700A307F4FE8347F4FEE39407FCBD
:1010B0008327C4FD23820700130000008320C102A0
:1010C000032481021301010367800000130101FD65
:1010D00023261102232481022322910213040103F7
:1010E000232EA4FC232CB4FC232AC4FC232404FEBA
:1010F0008327C4FD6394070073001000832784FDD9
:101100006394070073001000832744FD6394070075
:10111000730010008327C4FD6386070E832784FDB8
:101120006382070E832744FD638E070C232404FE8D
:101130008327C4FD83A70700938707011385070052
:10114000EFF05FD793070500A303F4FE8327C4FDE8
:1011500003C74700834774FEB367F70013F7F70F21
:101160008327C4FD2382E700834774FE93F727009B
:10117000A307F4FE6F00C0078327C4FD83A7070001
:1011800093864700032784FD832784FEB304F7007A
:1011900013850600EFF01FD2930705002380F400AB
:1011A000832784FE938717002324F4FE8327C4FD3E
:1011B00083A707009387070113850700EFF09FCFF0
:1011C00093070500A303F4FE8327C4FD03C747006C
:1011D000834774FEB367F70013F7F70F8327C4FD47
:1011E0002382E700834774FE93F72700A307F4FEEA
:1011F0008347F4FE63880700032784FE832744FDAA
:10120000E36CF7F6832784FE138507008320C10271
:10121000032481028324410213010103678000003B
:10122000130101FD2326110223248102130401036B
:10123000232EA4FC232CB4FC8327C4FD6394070055
:1012400073001000832784FD63940700730010006F
:101250008327C4FD63800708832784FD638C07060A
:10126000232604FE6F00C0058327C4FD83A7070063
:101270009387070113850700EFF0DFC3930705008D
:1012800093F71700A305F4FE8347B4FEE38E07FC33
:101290008327C4FD83A60700032784FD8327C4FE9C
:1012A000B307F70083C7070093850700138506007F
:1012B000EFF0DFBF8327C4FE938717002326F4FED9
:1012C000032784FD8327C4FEB307F70083C7070005
:1012D000E39C07F8130000008320C102032481026D
:1012E0001301010367800000130101FD2326110291
:1012F0002324810213040103232EA4FC232CB4FC19
:10130000232AC4FCA30704FE832784FD2324F4FEC0
:101310008327C4FD032784FD23A0E7008327C4FDA2
:10132000032744FD23A2E700A30704FE832784FDCF
:101330002324F4FE6F00800293050000032584FE41
:10134000EFF0DFB6832784FE938747002324F4FE63
:101350008347F4FE93871700A307F4FE0347F4FEC8
:101360009307F001E3FAE7FC8327C4FD83A7470056
:10137000130710006386E702638207061307200045
:101380006390E70C8327C4FD83A7070093870708B2
:101390009305F0FF13850700EFF05FA86F00C00A08
:1013A0008327C4FD83A7070013870708B707010039
:1013B0009385F7FF13050700EFF0DFAA8327C4FD2D
:1013C00083A7070013874708B70701009385F7FF36
:1013D00013050700EFF01FA96F0000078327C4FD66
:1013E00083A70700938707089305F00F138507006D
:1013F000EFF0DFAB8327C4FD83A70700938747087F
:101400009305F00F13850700EFF05FAA8327C4FD53
:1014100083A70700938787089305F00F13850700BC
:10142000EFF0DFA88327C4FD83A707009387C708D1
:101430009305F00F13850700EFF05FA76F00C00062
:101440007300100013000000130000008320C1028D
:10145000032481021301010367800000130101FED0
:10146000232E1100232C8100130401022326A4FE45
:101470002324B4FE8327C4FE83A74700130710006C
:101480006386E702638C0706130720006390E7106A
:101490008327C4FE83A707009387070A832584FE5A
:1014A00013850700EFF09F976F00C00E8327C4FEDF
:1014B00083A707009387070A032784FE13170701F2
:1014C000135707019305070013850700EFF09F9955
:1014D0008327C4FE83A707001387470A832784FE58
:1014E00093D707019397070193D7070193850700C7
:1014F00013050700EFF01F976F00C0098327C4FE94
:1015000083A707009387070A032784FE1377F70F43
:101510009305070013850700EFF05F998327C4FE4A
:1015200083A707001387470A832784FE93D7870082
:1015300093F7F70F9385070013050700EFF01F9748
:101540008327C4FE83A707001387870A832784FEA7
:1015500093D7070193F7F70F93850700130507004B
:10156000EFF0DF948327C4FE83A707001387C70A21
:10157000832784FE93D7870193F7F70F938507009E
:1015800013050700EFF09F926F00C000730010007A
:10159000130000000325C4FEEF00001A1307050026
:1015A000832784FE6384E7007300100013000000AB
:1015B0008320C1010324810113010102678000001F
:1015C000130101FD232611022324810213040103C8
:1015D000232EA4FC232604FE8327C4FD83A74700F3
:1015E000130710006386E7026380070813072000D3
:1015F0006394E7128327C4FD83A707009387070935
:1016000013850700EFF01F822326A4FE6F00401110
:101610008327C4FD83A70700938707091385070065
:10162000EFF0DF8493070500138707008327C4FECC
:10163000B3E7E7002326F4FE8327C4FD83A7070052
:101640009387470913850700EFF05F829307050032
:1016500093970701138707008327C4FEB3E7E700CA
:101660002326F4FE6F00C00B8327C4FD83A7070069
:101670009387070913850700EFF0DF8393070500C1
:10168000138707008327C4FEB3E7E7002326F4FE91
:101690008327C4FD83A707009387470913850700A5
:1016A000EFF05F819307050093978700138707008A
:1016B0008327C4FEB3E7E7002326F4FE8327C4FD97
:1016C00083A707009387870913850700EFF08FFE34
:1016D0009307050093970701138707008327C4FE2C
:1016E000B3E7E7002326F4FE8327C4FD83A70700A2
:1016F0009387C70913850700EFF0CFFB9307050019
:1017000093978701138707008327C4FEB3E7E70099
:101710002326F4FE6F00C0007300100013000000C9
:101720008327C4FE138507008320C102032481029E
:101730001301010367800000130101FD232611023C
:101740002324810213040103232EA4FC232604FE78
:101750008327C4FD83A74700130710006386E702B1
:1017600063800708130720006394E7128327C4FDF2
:1017700083A707009387070A13850700EFF08FEA16
:101780002326A4FE6F0040118327C4FD83A7070012
:101790009387070A13850700EFF04FED93070500C5
:1017A000138707008327C4FEB3E7E7002326F4FE70
:1017B0008327C4FD83A707009387470A1385070083
:1017C000EFF0CFEA9307050093970701138707000F
:1017D0008327C4FEB3E7E7002326F4FE6F00C00BA7
:1017E0008327C4FD83A707009387070A1385070093
:1017F000EFF0CFE793070500138707008327C4FEA8
:10180000B3E7E7002326F4FE8327C4FD83A7070080
:101810009387470A13850700EFF04FE5930705000C
:1018200093978700138707008327C4FEB3E7E70079
:101830002326F4FE8327C4FD83A707009387870A26
:1018400013850700EFF08FE29307050093970701D8
:10185000138707008327C4FEB3E7E7002326F4FEBF
:101860008327C4FD83A707009387C70A1385070052
:10187000EFF0CFDF930705009397870113870700E9
:101880008327C4FEB3E7E7002326F4FE6F00C00001
:1018900073001000130000008327C4FE13850700A7
:1018A0008320C10203248102130101036780000029
:1018B000130101FD2326810213040103232EA4FC3E
:1018C000F32740302326F4FE8327C4FE2324F4FEAE
:1018D000032784FE8327C4FDB367F7002324F4FEA7
:1018E000832784FEF3A747302322F4FE1300000071
:1018F0000324C1021301010367800000130101FFEB
:101900002326810013040101B767000003A7070223
:10191000B76700001377D7FF23A0E702130000008A
:101920000324C1001301010167800000130101FFBE
:10193000232611002324810013040101EFF01FFC72
:10194000130000008320C100032481001301010162
:1019500067800000130101FF2326810013040101A9
:10196000130000000324C10013010101678000007F
:10197000130101FF2326810013040101130000005D
:101980000324C1001301010167800000130101FF5E
:101990002326810013040101130000000324C10069
:1019A0001301010167800000130101FF232681005C
:1019B00013040101130000000324C10013010101FD
:1019C00067800000130101FF232681001304010139
:1019D000130000000324C10013010101678000000F
:1019E000130101FF232681001304010113000000ED
:1019F0000324C1001301010167800000130101FFEE
:101A00002326810013040101130000000324C100F8
:101A10001301010167800000130101FF23268100EB
:101A200013040101130000000324C100130101018C
:101A300067800000130101FF2326810013040101C8
:101A4000130000000324C10013010101678000009E
:101A5000130101FF2326810013040101130000007C
:101A60000324C1001301010167800000130101FF7D
:101A70002326110023248100130401019387C181CF
:101A800083A7070013C7F7009387C18123A0E7004E
:101A90009387C18183A707009385070013858187FA
:101AA000EFF0DF9B97050000938585321385018752
:101AB000EFF00FF7130000008320C1000324810022
:101AC0001301010167800000130101FF23261100AB
:101AD0002324810013040101930610001306A001C2
:101AE000B705007113850187EFF0CFC0970700009D
:101AF0009387473083A707009385070013850187E5
:101B0000EFF00FF213062000B705007513858187EB
:101B1000EFF08FFD9305000013858187EFF01F9490
:101B2000EFF04FADB717003F13850780EFF05FD898
:101B3000B7F7FA0213850708EFE01FE61306000463
:101B4000970500009385052E13850187EFF00FD8C8
:101B50009307050013F7F70F938781812380E70030
:101B60009387818183C7070093F7F70FE38807FC0A
:101B7000970500009385052B13850187EFF04FEA49
:101B8000938781812380070013858187EFF05FA30E
:101B9000130705009387018223A0E7006FF01FFA67
:101BA0006340050663C60506138605009305050018
:101BB0001305F0FF630C060293061000637AB6006B
:101BC0006358C0001316160093961600E36AB6FE1B
:101BD0001305000063E6C500B385C5403365D50035
:101BE00093D6160013561600E39606FE6780000093
:101BF00093820000EFF05FFB138505006780020011
:101C00003305A04063D80500B305B0406FF0DFF99D
:101C1000B305B04093820000EFF01FF93305A040F8
:101C2000678002009382000063CA0500634C0500D0
:101C3000EFF09FF71385050067800200B305B04001
:101C4000E35805FE3305A040EFF01FF63305B04022
:101C5000678002000000000000000000000000009B
:101C60000D0A2A2A2A2A2A2A2A2A2A2A2A2A2A2A11
:101C70002A2A2A2A2A2A2A2A2A2A2A2A2A2A2A2AC4
:101C80002A2A2A2A2A2A2A2A2A2A2A2A2A2A2A2AB4
:101C90002A2A2A2A2A2A2A2A2A2A2A2A2A2A2A2AA4
:101CA0002A2A2A2A2A2A2A2A2A2A2A2A2A2A2A2A94
:101CB0000D0A0A2A2A2A2A2A2A2A2A2A2A2A2A2AE1
:101CC0002A2A2A2A2A2A2A202020204D692D562015
:101CD00053797374656D2054696D657220426C6927
:101CE0006E6B79204578616D706C65202020202A0C
:101CF0002A2A2A2A2A2A2A2A2A2A2A2A2A2A2A2A44
:101D00002A2A2A2A2A2A0D0A0A2A2A2A2A2A2A2A90
:101D10002A2A2A2A2A2A2A2A2A2A2A2A2A2A2A2A23
:101D20002A2A2A2A2A2A2A2A2A2A2A2A2A2A2A2A13
:101D30002A2A2A2A2A2A2A2A2A2A2A2A2A2A2A2A03
:101D40002A2A2A2A2A2A2A2A2A2A2A2A2A2A2A2AF3
:101D50002A2A2A2A2A2A2A0D0A0D0A4F6273657234
:101D6000766520746865204C45447320626C696E0A
:101D70006B696E67206F6E2074686520626F617298
:101D8000642E20546865204C45442070617474654D
:101D9000726E206368616E6765732065766572791F
:101DA0002074696D6520612073797374656D20748A
:101DB000696D657220696E74657272757074206FDA
:101DC00063637572732E0D0A000000000D0A496EE0
:101DD0007465726E616C2053797374656D205469FB
:101DE0006D657220496E74657272757074000000C2
:101DF000601C004000000000000000000000000027
:0400000540000000B7
:00000001FF
