:100000006F0010016F00C00700000000000000003A
:100010006F00C010000000000000000000000000A1
:100020006F00401800000000000000000000000009
:100030006F00C01F00000000000000000000000072
:10004000000000006F0000276F00402F000000003C
:1000500000000000000000000000000000000000A0
:10006000000000006F0000366F00403E6F008046C9
:100070006F00C04E6F0000576F00405F6F008067D9
:10008000130101F81300000013000000130000002A
:1000900023201100232221002324310023264100A4
:1000A00023285100232A6100232C7100232E810074
:1000B000232091022322A1022324B1022326C1027C
:1000C0002328D102232AE102232CF102232E01034B
:1000D0002320110523222105232431052326410550
:1000E00023285105232A6105232C7105232E810520
:1000F000232091072322A1072324B1072326C10728
:100100002328D107232AE107232CF1077325203464
:10011000F3251034EF00D01B6F004066130101F887
:100120002320110023222100232431002326410013
:1001300023285100232A6100232C7100232E8100E3
:10014000232091022322A1022324B1022326C102EB
:100150002328D102232AE102232CF102232E0103BA
:1001600023201105232221052324310523264105BF
:1001700023285105232A6105232C7105232E81058F
:10018000232091072322A1072324B1072326C10797
:100190002328D107232AE107232CF107EF00D010F1
:1001A0006F00C05D130101F82320110023222100FC
:1001B000232431002326410023285100232A6100F3
:1001C000232C7100232E8100232091022322A102DF
:1001D0002324B1022326C1022328D102232AE102CB
:1001E000232CF102232E01032320110523222105B4
:1001F000232431052326410523285105232A61059F
:10020000232C7105232E8105232091072322A1078A
:100210002324B1072326C1072328D107232AE10776
:10022000232CF107EF00D0016F004055130101F8B6
:100230002320110023222100232431002326410002
:1002400023285100232A6100232C7100232E8100D2
:10025000232091022322A1022324B1022326C102DA
:100260002328D102232AE102232CF102232E0103A9
:1002700023201105232221052324310523264105AE
:1002800023285105232A6105232C7105232E81057E
:10029000232091072322A1072324B1072326C10786
:1002A0002328D107232AE107232CF107EF00900D23
:1002B0006F00C04C130101F82320110023222100FC
:1002C000232431002326410023285100232A6100E2
:1002D000232C7100232E8100232091022322A102CE
:1002E0002324B1022326C1022328D102232AE102BA
:1002F000232CF102232E01032320110523222105A3
:10030000232431052326410523285105232A61058D
:10031000232C7105232E8105232091072322A10779
:100320002324B1072326C1072328D107232AE10765
:10033000232CF107EF0090056F004044130101F8F2
:1003400023201100232221002324310023264100F1
:1003500023285100232A6100232C7100232E8100C1
:10036000232091022322A1022324B1022326C102C9
:100370002328D102232AE102232CF102232E010398
:10038000232011052322210523243105232641059D
:1003900023285105232A6105232C7105232E81056D
:1003A000232091072322A1072324B1072326C10775
:1003B0002328D107232AE107232CF107EF00C07C73
:1003C0006F00C03B130101F82320110023222100FC
:1003D000232431002326410023285100232A6100D1
:1003E000232C7100232E8100232091022322A102BD
:1003F0002324B1022326C1022328D102232AE102A9
:10040000232CF102232E0103232011052322210591
:10041000232431052326410523285105232A61057C
:10042000232C7105232E8105232091072322A10768
:100430002324B1072326C1072328D107232AE10754
:10044000232CF107EF0040766F004033130101F8D1
:1004500023201100232221002324310023264100E0
:1004600023285100232A6100232C7100232E8100B0
:10047000232091022322A1022324B1022326C102B8
:100480002328D102232AE102232CF102232E010387
:10049000232011052322210523243105232641058C
:1004A00023285105232A6105232C7105232E81055C
:1004B000232091072322A1072324B1072326C10764
:1004C0002328D107232AE107232CF107EF00806DB1
:1004D0006F00C02A130101F82320110023222100FC
:1004E000232431002326410023285100232A6100C0
:1004F000232C7100232E8100232091022322A102AC
:100500002324B1022326C1022328D102232AE10297
:10051000232CF102232E0103232011052322210580
:10052000232431052326410523285105232A61056B
:10053000232C7105232E8105232091072322A10757
:100540002324B1072326C1072328D107232AE10743
:10055000232CF107EF00C0646F004022130101F863
:1005600023201100232221002324310023264100CF
:1005700023285100232A6100232C7100232E81009F
:10058000232091022322A1022324B1022326C102A7
:100590002328D102232AE102232CF102232E010376
:1005A000232011052322210523243105232641057B
:1005B00023285105232A6105232C7105232E81054B
:1005C000232091072322A1072324B1072326C10753
:1005D0002328D107232AE107232CF107EF00005C31
:1005E0006F00C019130101F82320110023222100FC
:1005F000232431002326410023285100232A6100AF
:10060000232C7100232E8100232091022322A1029A
:100610002324B1022326C1022328D102232AE10286
:10062000232CF102232E010323201105232221056F
:10063000232431052326410523285105232A61055A
:10064000232C7105232E8105232091072322A10746
:100650002324B1072326C1072328D107232AE10732
:10066000232CF107EF0040536F004011130101F8F4
:1006700023201100232221002324310023264100BE
:1006800023285100232A6100232C7100232E81008E
:10069000232091022322A1022324B1022326C10296
:1006A0002328D102232AE102232CF102232E010365
:1006B000232011052322210523243105232641056A
:1006C00023285105232A6105232C7105232E81053A
:1006D000232091072322A1072324B1072326C10742
:1006E0002328D107232AE107232CF107EF00804AB2
:1006F0006F00C008130101F82320110023222100FC
:10070000232431002326410023285100232A61009D
:10071000232C7100232E8100232091022322A10289
:100720002324B1022326C1022328D102232AE10275
:10073000232CF102232E010323201105232221055E
:10074000232431052326410523285105232A610549
:10075000232C7105232E8105232091072322A10735
:100760002324B1072326C1072328D107232AE10721
:10077000232CF107EF00C0416F00400083200100EF
:1007800003214100832181000322C1008322010152
:1007900003234101832381010324C1018324010236
:1007A00003254102832581020326C102832601031A
:1007B00003274103832781030328C10383280104FE
:1007C0000329410483298104032AC104832A0105E2
:1007D000032B4105832B8105032CC105832C0106C6
:1007E000032D4106832D8106032EC106832E0107AA
:1007F000032F4107832F8107130101087300203065
:1008000000000000000000000000000000000000E8
:10081000735000307350403097F0FFFF9380807E1C
:10082000B7C200029382C2FF23A00200F32210305D
:1008300093F2120063960202F322503093F23200D8
:1008400013031000639E6200F322503093F2C2FF44
:1008500017F3FFFF1303437B639862046F000001EB
:1008600097F2FFFF9382427A73905230171700007D
:100870001307472A971700009387C7291718000006
:100880001308482A6308F7006386070197000000F1
:10089000E7804009972100009381C1A7EF00000184
:1008A000138101076F00802D7300100093820000F8
:1008B000938701821388018763840701EF00400456
:1008C0009387018113880182638C0701EF00400345
:1008D000938701871388018763840701EF00400233
:1008E0001387018193870181138801816306F700D3
:1008F00063840701EF00C00293800200678000005C
:100900006364F804B368F80093F83800634E10038A
:1009100023A0070093874700E3CC07FF6780000010
:100920006364F802B368F80093F83800634E10016E
:100930008328070023A01701938747001307470068
:10094000E3C807FF6F0080006F00000067800000B1
:10095000130101FF2324010023260100B7C7000271
:1009600083A6C7FF2324D10083A687FF2326D100B7
:1009700003A6C7FF83268100E314D6FE83A5C7FF25
:100980000325C1001301010167800000130101FE6E
:10099000B75700022328210103A90700930600008E
:1009A000232C810013060900232A910023263101FC
:1009B00023244101232E110093090500138A050009
:1009C000EF00007B23A8A18023AAB1809304050037
:1009D0001384050063160A001305100063E229055D
:1009E000374900029307F0FF2322F900EFF05FF68A
:1009F000330595002320A900EFF09FF533059500FE
:100A000033359500B38585003305B5002322A90051
:100A100093070008F3A74730F3670430130500007D
:100A20008320C101032481018324410103290101A1
:100A30008329C100032A810013010102678000009D
:100A4000130101FF2326110023248100232291009A
:100A500023202101374400029307F0FF2322F400F2
:100A6000EFF01FEF9387018103A9070083A44700DC
:100A7000330525012320A400EFF09FED3305A900E5
:100A800033352501B385B4003305B5002322A40016
:100A9000032481008320C100832441000329010035
:100AA000130101016F00C05D130101FF2326110036
:100AB000EF00C05B37670000832707028320C10077
:100AC00093F7D7FF2320F70213010101678000008D
:100AD000635E05089317150093D7170013073000BE
:100AE0006394E7006FF05FFC130770006394E70006
:100AF0006FF01FF51307B0006394E7006F008008E4
:100B0000130780016394E7006F00000A1307900148
:100B10006394E7006F0000091307A0016394E700E6
:100B20006F0000081307B0016394E7006F0000072F
:100B30001307C0016394E7006F0000061307D0019C
:100B40006394E7006F0000051307E0016394E7007A
:100B50006F000004130700016394E7006F000003B7
:100B6000130710016394E7006F000002130101FFF7
:100B70001305150023261100EF0040036F000054F9
:100B800067800000678000006780000067800000C9
:100B900067800000678000006780000067800000B9
:100BA0006780000067800000678000006F00000021
:100BB000F3670430678000002320B50067800000E1
:100BC0000325050067800000138E0600331EBE005B
:100BD000337ECE00032305009303060093C3F3FF87
:100BE000337373003363C301232065006780000003
:100BF000032505003375C5003355B5006780000037
:100C00002310B50067800000031505006780000011
:100C1000138E0600331EBE00337ECE000313050084
:100C20009303060093C3F3FF337373003363C3016D
:100C30002310650067800000031505003375C500AB
:100C40003355B500678000002300B50067800000C1
:100C50000305050067800000138E0600331EBE00EA
:100C6000337ECE00030305009303060093C3F3FF16
:100C7000337373003363C301230065006780000092
:100C8000030505003375C5003355B50067800000C6
:100C90006304050A9307700063E0D70AB7270000D2
:100CA000637CF608130101FE232C81002328210117
:100CB0001304060013890500232A91009375F60F8B
:100CC000930405001354544013058900232E11008A
:100CD000232631011374847F93890600EFF0DFF639
:100CE0001305C900B3653401EFF01FF613050901C0
:100CF00023A02401EFF0DFF5137525006312050230
:100D0000238204008320C101032481018324410143
:100D1000032901018329C10013010102678000003A
:100D200003A5040013054500EFF09FF203A504009E
:100D3000130505016FF01FFC67800000130101FE21
:100D4000232E1100232C8100232A91002328210126
:100D500023263101630C0508938905006388050883
:100D6000930406006308060213040500032505002A
:100D70001309000013050501EFF09FED83474400C0
:100D8000B367F5002302F40013752500630405061C
:100D9000631299028320C101032481011385040099
:100DA00003290101832441018329C10013010102A8
:100DB000678000000325040013054500EFF05FE99C
:100DC000B38729012380A700032504001309190014
:100DD00013050501EFF0DFE783474400B367F50033
:100DE0002302F400137525006FF05FFA93040000EE
:100DF0006FF05FFA930409006FF0DFF963020506F4
:100E000063800506130101FF232481002322910042
:100E10002326110093040500138405008347040072
:100E2000639C07008320C1000324810083244100C8
:100E3000130101016780000003A5040013050501EB
:100E4000EFF01FE113751500E30805FE834504006C
:100E500003A5040013041400EFF01FDF6FF01FFC64
:100E600067800000130101FF2324810013040500A3
:100E70002322910023202101232611002320B400E6
:100E8000938405002322C5001389050813850400F7
:100E90009305000093844400EFF01FDBE39824FFE8
:100EA0008327440013071000638AE7026384070660
:100EB00013072000639AE70A032504000324810036
:100EC0008320C10083244100032901009305F0FF22
:100ED00013050508130101016FF01FCE032504005F
:100EE000B70401009385F4FF13050508EFF05FD107
:100EF00003250400032481008320C100032901008D
:100F00009385F4FF83244100130545081301010173
:100F10006FF01FCF032504009305F00F130505089C
:100F2000EFF09FD2032504009305F00F1305450849
:100F3000EFF09FD1032504009305F00F13058508FA
:100F4000EFF09FD003250400032481008320C1001B
:100F500083244100032901009305F00F1305C50800
:100F6000130101016FF05FCE8320C10003248100D3
:100F7000832441000329010013010101678000005F
:100F800083274500130101FF2324810023229100C0
:100F90002326110013071000130405009384050095
:100FA0006386E702638E0704130720006396E70A4F
:100FB00003250500032481008320C1008324410010
:100FC0001305050A130101016FF01FBF032505007A
:100FD0009395050193D505011305050AEFF05FC24E
:100FE00003250400032481008320C10093D504015C
:100FF000832441001305450A130101016FF05FC00E
:101000000325050093F5F50F1305050AEFF0DFC37F
:101010000325040093D5840093F5F50F1305450AC5
:10102000EFF09FC20325040093D5040193F5F50F5B
:101030001305850AEFF05FC1032504000324810036
:101040008320C10093D58401832441001305C50A80
:10105000130101016FF05FBF8320C10003248100F1
:1010600083244100130101016780000037670000FD
:101070008327070293F7D7FF2320F702678000003A
:101080009387C18103A70700130101FF23261100E5
:101090001347F70023A0E70083A507001385018607
:1010A000EFF01FEE8320C100970500009385857D3A
:1010B00013858186130101016FF05FD4130101FFD5
:1010C000930610001306A001B705007113858186F1
:1010D00023261100232481002322910023202101B3
:1010E000EFF01FBB971700009387C7A283A50700E7
:1010F00013858186EFF09FD013062000B705007599
:1011000013850186EFF01FD6930500001385018635
:10111000EFF01FE7EFF0DFA9B7070007F3A74730AD
:1011200037F5FA021305050893050000EFF01F8656
:1011300093840182138481861389818113060004BC
:101140009385018213050400EFF05FBF238CA1801B
:101150008347090093F7F70FE38207FE93850400A6
:1011600013050400EFF09FC9238C01806FF01FFD71
:10117000130101FD23248102232C410123261102A6
:101180002322910223202103232E3101232A5101FE
:101190002328610123267101232481012322910147
:1011A000130A050013840500639E06229389060036
:1011B000930406001309050063FEC510B70701007C
:1011C000938A0500636EF62CB7070001636AF65632
:1011D000135786019309800197170000938787832F
:1011E000B387E70083C70700B3893701930700027D
:1011F000B3873741638C07003314F400B3593A01C5
:10120000B314F600B3EA89003319FA0013DB0401C2
:1012100093050B0013850A00EF004060130A0500D8
:1012200093050B0013850A00939A0401EF00805A7E
:1012300093DA0A01930505001304050013850A00DB
:10124000EF008056131A0A0193570901B367FA0099
:1012500063FCA700B38797001307F4FF63E49700CC
:1012600063E8A75213040700B389A74093050B0056
:1012700013850900EF00805A130A050093050B003F
:1012800013850900EF0000551319090193050500A6
:1012900093090500131A0A0113850A00135909015D
:1012A000EF00805033692A01637EA900338924014D
:1012B0009387F9FF636699009389E9FF6364A90046
:1012C000938907001315040133653501130C0000E1
:1012D0006F00C016631A0600930500001305100086
:1012E000EF00404F93040500B707010063EEF418C8
:1012F000B707000163ECF44413D78401930980011C
:101300009707000093870771B387E70083C707003B
:10131000B389370193070002B3873741639E0718EB
:10132000939B04013304944013DB040193DB0B0112
:10133000130C100093050B0013050400EF00004E82
:10134000130A050093050B0013050400EF00804805
:1013500093850B0013040500EF000045131A0A01E2
:1013600093570901B367FA0063FCA700B38797009E
:101370001307F4FF63E4970063E2A7421304070036
:10138000B389A74093050B0013850900EF000049BE
:10139000130A050093050B0013850900EF00804335
:1013A0001319090193850B00131A0A011359090136
:1013B0009309050033692A01EF00003F637EA9000D
:1013C000338924019387F9FF636699009389E9FFC4
:1013D0006364A9009389070013150401336535017F
:1013E0006F00C00563E8D504B707010063E4F608A1
:1013F000B707000163E0F63493D7860193058001B7
:1014000017070000130707613307F700834707003A
:10141000130B0002B387B700330BFB4063100B18AC
:1014200063EC86323336CA0013451600130C0000F5
:101430006F00C000130C00001305000093050C00A2
:101440008320C10203248102832441020329010273
:101450008329C101032A8101832A4101032B010150
:10146000832BC100032C8100832C41001301010355
:10147000678000009307F00F63F6D72E93D786009E
:10148000930580006FF0DFF79307F00F13870400D8
:10149000E3F897E613D78400930980006FF05FE6C6
:1014A0009307F00F13070600E3F8C7D2135786001F
:1014B000930980006FF05FD2B394F400335C340181
:1014C00013DB040193050B0013050C003314F40027
:1014D0003319FA00B3593A01EF004034B3EA8900F6
:1014E00093050B0093090500939B040113050C0061
:1014F000EF00402E93DB0B0193050500130A050056
:1015000013850B00EF00402A9399090193D70A0134
:10151000B3E7F90063FEA700B38797001307FAFF4C
:1015200063E4972663F2A726130AEAFFB3879700BE
:101530003384A74093050B0013050400EF00002E31
:101540009309050093050B0013050400EF008028A4
:10155000939A0A0193050500130C050013940901E1
:1015600013850B0093DA0A01EF0000243364540161
:10157000637EA400330494009307FCFF636E941E03
:10158000637CA41E130CECFF33049400131A0A01AD
:101590003304A440336C8A016FF0DFD9B35BF600EB
:1015A000B3966601B3EBDB00B354F40093D90B019F
:1015B000B357FA00938509003314640113850400BE
:1015C00033E48700B31A6601EF00402513090500D4
:1015D00093850900139C0B0113850400EF00801F05
:1015E000135C0C0193050500930C050013050C001A
:1015F000EF00801B1319090193570401B367F90029
:1016000063FEA700B38777011387FCFF63EA7717B0
:1016100063F8A716938CECFFB3877701B384A740D8
:101620009385090013850400EF00401F130905008E
:101630009385090013850400EF00C01913140401F9
:1016400093050500930405001319090113050C0007
:1016500013540401EF00401533648900637EA40035
:10166000330474019387F4FF636474116372A410EC
:101670009384E4FF33047401370E0100939C0C0142
:10168000B3EC9C001307FEFF33F8EC0033F7EA00DD
:101690003304A44093D80C0193DA0A01130508001F
:1016A00093050700EF0040101303050093850A001F
:1016B00013050800EF00400F13080500930507000D
:1016C00013850800EF00400E1307050093850A00FC
:1016D00013850800EF00400D935703013308E8001D
:1016E000B387070163F4E7003305C50113D707018A
:1016F0003305A700636AA4026308A40013850C00E5
:10170000130C00006FF09FD3370701001307F7FF9A
:10171000B3F7E700939707013373E30033166A01C9
:10172000B3876700E37CF6FC1385FCFF130C000015
:101730006FF0DFD093D70601930500016FF05FCC07
:1017400013570601930900016FF01FA913D7040175
:10175000930900016FF0DFBA130C000013051000AD
:101760006FF0DFCD93870600930500006FF05FC92F
:10177000938407006FF05FF0138C07006FF01FE198
:10178000930C07006FF09FE9130A07006FF05FDA10
:101790001304E4FFB38797006FF01FAD1304E4FF59
:1017A000B38797006FF0DFBD130605001305000037
:1017B00093F61500638406003305C50093D5150024
:1017C00013161600E39605FE6780000063400506C9
:1017D00063C6050613860500930505001305F0FF93
:1017E000630C060293061000637AB6006358C000CB
:1017F0001316160093961600E36AB6FE1305000052
:1018000063E6C500B385C5403365D50093D61600A1
:1018100013561600E39606FE6780000093820000D0
:10182000EFF05FFB13850500678002003305A040E1
:1018300063D80500B305B0406FF0DFF9B305B040E1
:1018400093820000EFF01FF93305A040678002008B
:101850009382000063CA0500634C0500EFF09FF718
:101860001385050067800200B305B040E35805FE0C
:101870003305A040EFF01FF63305B040678002004B
:101880000D0A496E7465726E616C205379737465CC
:101890006D2054696D657220496E74657272757041
:1018A000740000000D0A2A2A2A2A2A2A2A2A2A2A09
:1018B0002A2A2A2A2A2A2A2A2A2A2A2A2A2A2A2A88
:1018C0002A2A2A2A2A2A2A2A2A2A2A2A2A2A2A2A78
:1018D0002A2A2A2A2A2A2A2A2A2A2A2A2A2A2A2A68
:1018E0002A2A2A2A2A2A2A2A2A2A2A2A2A2A2A2A58
:1018F0002A2A2A2A0D0A0A2A2A2A2A2A2A2A2A2AA5
:101900002A2A2A2A2A2A2A2A2A2A2A202020204D3C
:10191000692D562053797374656D2054696D657215
:1019200020426C696E6B79204578616D706C652022
:101930002020202A2A2A2A2A2A2A2A2A2A2A2A2A25
:101940002A2A2A2A2A2A2A2A2A2A0D0A0A2A2A2A54
:101950002A2A2A2A2A2A2A2A2A2A2A2A2A2A2A2AE7
:101960002A2A2A2A2A2A2A2A2A2A2A2A2A2A2A2AD7
:101970002A2A2A2A2A2A2A2A2A2A2A2A2A2A2A2AC7
:101980002A2A2A2A2A2A2A2A2A2A2A2A2A2A2A2AB7
:101990002A2A2A2A2A2A2A2A2A2A2A0D0A0D0A4FFC
:1019A00062736572766520746865204C45447320C7
:1019B000626C696E6B696E67206F6E20746865205B
:1019C000626F6172642E20546865204C454420701B
:1019D00061747465726E206368616E6765732065FB
:1019E000766572792074696D6520612073797374EE
:1019F000656D2074696D657220696E7465727275AB
:101A00007074206F63637572732E0D0A00000000FE
:101A10000001020203030303040404040404040495
:101A20000505050505050505050505050505050566
:101A30000606060606060606060606060606060646
:101A40000606060606060606060606060606060636
:101A50000707070707070707070707070707070716
:101A60000707070707070707070707070707070706
:101A700007070707070707070707070707070707F6
:101A800007070707070707070707070707070707E6
:101A900008080808080808080808080808080808C6
:101AA00008080808080808080808080808080808B6
:101AB00008080808080808080808080808080808A6
:101AC0000808080808080808080808080808080896
:101AD0000808080808080808080808080808080886
:101AE0000808080808080808080808080808080876
:101AF0000808080808080808080808080808080866
:101B00000808080808080808080808080808080855
:101B1000A4180040000000000000000000000000C9
:0400000540000000B7
:00000001FF
