:100000006F0000316F00C00400000000000000001D
:100010006F00400D00000000000000000000000024
:100020006F0000150000000000000000000000004C
:100030006F00C01C00000000000000000000000075
:100040000000000013000000130000001300000077
:10005000130101F823201100232011002322210085
:10006000232431002326410023285100232A610044
:10007000232C7100232E8100232091022322A10230
:100080002324B1022326C1022328D102232AE1021C
:10009000232CF102232E0103232011052322210505
:1000A000232431052326410523285105232A6105F0
:1000B000232C7105232E8105232091072322A107DC
:1000C0002324B1072326C1072328D107232AE107C8
:1000D000232CF10773252034F3251034EF00405D05
:1000E0006F00801A130101F8232011002320110052
:1000F00023222100232431002326410023285100FC
:10010000232A6100232C7100232E810023209102D9
:100110002322A1022324B1022326C1022328D102D3
:10012000232AE102232CF102232E010323201105AF
:1001300023222105232431052326410523285105A7
:10014000232A6105232C7105232E81052320910785
:100150002322A1072324B1072326C1072328D1077F
:10016000232AE107232CF107EF0040486F00C0115C
:10017000130101F823201100232011002322210064
:10018000232431002326410023285100232A610023
:10019000232C7100232E8100232091022322A1020F
:1001A0002324B1022326C1022328D102232AE102FB
:1001B000232CF102232E01032320110523222105E4
:1001C000232431052326410523285105232A6105CF
:1001D000232C7105232E8105232091072322A107BB
:1001E0002324B1072326C1072328D107232AE107A7
:1001F000232CF107EF0040366F000009130101F8CE
:100200002320110023201100232221002324310068
:100210002326410023285100232A6100232C71004A
:10022000232E8100232091022322A1022324B10244
:100230002326C1022328D102232AE102232CF10222
:10024000232E010323201105232221052324310518
:100250002326410523285105232A6105232C7105F6
:10026000232E8105232091072322A1072324B107F0
:100270002326C1072328D107232AE107232CF107CE
:10028000EF00C0386F0040008320010003214100CF
:10029000832181000322C100832201010323410144
:1002A000832381010324C101832401020325410228
:1002B000832581020326C10283260103032741030C
:1002C000832781030328C1038328010403294104F0
:1002D00083298104032AC104832A0105032B4105D4
:1002E000832B8105032CC105832C0106032D4106B8
:1002F000832D8106032EC106832E0107032F41079C
:10030000832F8107130101087300203000000000D3
:10031000735000307350403097000000938080CEBF
:10032000F322103093F2120063960202F32250304F
:1003300093F2320013031000639E6200F3225030E8
:1003400093F2C2FF17030000130303CC6398620407
:100350006F00000197020000938202CB739052302D
:1003600017370000130707829737000093878781AC
:1003700017380000130808826308F7006386070136
:1003800097000000E780400997310000938181FFCA
:10039000EF000001138101506F00C03573001000A1
:1003A000938200009387018A138801906384070178
:1003B000EF004004938701871388018A638C07014B
:1003C000EF00400393870190138801D063840701F5
:1003D000EF00400213870181938701811388018711
:1003E0006306F70063840701EF00C00293800200F8
:1003F000678000006364F804B368F80093F838007D
:10040000634E100323A0070093874700E3CC07FF48
:10041000678000006364F802B368F80093F838005E
:10042000634E10018328070023A01701938747001C
:1004300013074700E3C807FF6F0080006F0000004C
:1004400067800000130101FF23240100232601001F
:10045000B7C7004403A7C7FF2324E10003A787FF12
:100460002326E1000327810083A5C7FFE394E5FE6F
:100470000325C1001301010167800000130101FF82
:10048000232481001307000093870187232611008E
:10049000138481879306000023A2E7002322E4004F
:1004A00023A0D7002320D4009307000013070000E7
:1004B000130600009308300613881700B336F800BF
:1004C000B386E6006398050663E6A80663060600A1
:1004D00023ACF18623AEE186EFF0DFF6832704003C
:1004E000832644003307F5003335A700B385D500D4
:1004F000B305B50023A8E18623AAB186B3E7D700E8
:100500001305100063800702B747004423A0E700EB
:1005100023A2B70093070008F3A74730F36704301E
:10052000130500008320C100032481001301010191
:10053000678000009307C5F933B7A7009385F5FFDF
:1005400013850700B305B7001306100093070800D2
:10055000138706006FF05FF6130101FF23261100D9
:1005600093070008F3B74730EFF0DFED938701877B
:1005700003A707001306550083A7470093868187CA
:100580003335A60003A8060083A84600B305B500CE
:100590009306000063EEB7026394F500636AC70236
:1005A0006386060023A8E18623AAF186B7460044A5
:1005B00023A2F60023A0E600EF00C07A930700080C
:1005C000F3A747308320C1001301010167800000B9
:1005D000B306070133B5E600B3871701138706009A
:1005E000B307F500930610006FF0DFFA130101FF67
:1005F00023261100EF0040768320C100B707004496
:1006000023A007001301010167800000130101FF0F
:10061000232611002324810023229100232021017D
:10062000732440F1B70400401314C40033848400E1
:10063000B70720003304F40003294400630E0904C3
:1006400013172900972700009387C726B387E70071
:1006500083A70700E78007009307100023222401E7
:10066000631CF502732740F1935759001317570085
:10067000B387E70093972700B384F400B7270000FF
:10068000B384F40083A70400331525011345F5FF57
:100690003375F50023A0A4008320C100032481004A
:1006A0008324410003290100130101016780000038
:1006B0006358050213151500135515009307B00074
:1006C0006314F5006FF09FF4930730006314F50096
:1006D0006FF0DFF193077000631CF5006FF0DFE748
:1006E000130101FF1305150023261100EF0000116F
:1006F000678000006F00406C6780000013050000F9
:1007000067800000130500006780000013050000EB
:1007100067800000130500006780000013050000DB
:1007200067800000130500006780000013050000CB
:1007300067800000130500006780000013050000BB
:1007400067800000130500006780000013050000AB
:10075000678000001305000067800000130500009B
:10076000678000001305000067800000130500008B
:10077000678000001305000067800000130500007B
:10078000678000001305000067800000130500006B
:10079000678000001305000067800000130500005B
:1007A000678000001305000067800000130500004B
:1007B000678000001305000067800000130500003B
:1007C000678000001305000067800000130500002B
:1007D000678000001305000067800000130500001B
:1007E000678000001305000067800000130500000B
:1007F0006780000013050000678000006F000000A4
:10080000972700009387073883A707001387019075
:100810003385A700636EE500138701D0636AA700E4
:10082000172700002320A7361385070067800000E4
:100830009307F0FF6FF05FFF13253500678000001E
:100840001305F0FF67800000130101FE232E110045
:100850002326B100EF00406A630005028325C10032
:10086000B72700001305000023A2F5008320C10173
:1008700013010102678000001305F0FF6FF01FFFF6
:10088000132535001305F5FF678000001305F0FF01
:10089000678000001305F0FF67800000F3670430F5
:1008A000678000002320B500678000000325050055
:1008B00067800000138E0600331EBE00337ECE001C
:1008C000032305009303060093C3F3FF3373730000
:1008D0003363C30123206500678000000325050002
:1008E0003375C5003355B500678000002310B5008F
:1008F000678000000315050067800000138E060066
:10090000331EBE00337ECE000313050093030600A2
:1009100093C3F3FF337373003363C3012310650084
:1009200067800000031505003375C5003355B50019
:10093000678000002300B500678000000305050004
:1009400067800000138E0600331EBE00337ECE008B
:10095000030305009303060093C3F3FF337373008F
:100960003363C301230065006780000003050500B1
:100970003375C5003355B500678000006304050A70
:100980009307700063E0D70AB7270000637CF6087E
:10099000130101FE232C81002328210113040600EA
:1009A00013890500232A91009375F60F930405001F
:1009B0001354544013058900232E110023263101BE
:1009C0001374847F93890600EFF0DFF61305C900E6
:1009D000B3653401EFF01FF61305090123A02401CC
:1009E000EFF0DFF513752500631205022382040082
:1009F0008320C101032481018324410103290101D2
:100A00008329C100130101026780000003A50400CF
:100A100013054500EFF09FF203A50400130505013F
:100A20006FF01FFC67800000130101FE232E1100F0
:100A3000232C8100232A9100232821012326310120
:100A4000630C050893890500638805089304060074
:100A500063080602130405000325050013090000BE
:100A600013050501EFF09FED83474400B367F500E0
:100A70002302F4001375250063040506631299022E
:100A80008320C1010324810113850400032901018E
:100A9000832441018329C100130101026780000002
:100AA0000325040013054500EFF05FE9B387290132
:100AB0002380A7000325040013091900130505016D
:100AC000EFF0DFE783474400B367F5002302F4004B
:100AD000137525006FF05FFA930400006FF05FFA62
:100AE000930409006FF0DFF96302050663800506D1
:100AF000130101FF232481002322910023261100EA
:100B0000930405001384050083470400639C0700D9
:100B10008320C100032481008324410013010101CB
:100B20006780000003A5040013050501EFF01FE135
:100B300013751500E30805FE8345040003A50400B2
:100B400013041400EFF01FDF6FF01FFC678000003C
:100B5000130101FF232481001304050023229100C7
:100B600023202101232611002320B40093840500B3
:100B70002322C5001389050813850400930500008E
:100B800093844400EFF01FDBE39824FF83274400A5
:100B900013071000638AE702638407061307200027
:100BA000639AE70A03250400032481008320C1001F
:100BB00083244100032901009305F0FF1305050874
:100BC000130101016FF01FCE03250400B7040100DB
:100BD0009385F4FF13050508EFF05FD103250400AA
:100BE000032481008320C100032901009385F4FFC1
:100BF0008324410013054508130101016FF01FCF45
:100C0000032504009305F00F13050508EFF09FD2AC
:100C1000032504009305F00F13054508EFF09FD15D
:100C2000032504009305F00F13058508EFF09FD00E
:100C300003250400032481008320C1008324410094
:100C4000032901009305F00F1305C50813010101E5
:100C50006FF05FCE8320C100032481008324410014
:100C6000032901001301010167800000832745006B
:100C7000130101FF23248100232291002326110068
:100C80001307100013040500938405006386E70230
:100C9000638E0704130720006396E70A0325050007
:100CA000032481008320C100832441001305050A29
:100CB000130101016FF01FBF032505009395050186
:100CC00093D505011305050AEFF05FC20325040063
:100CD000032481008320C10093D5040183244100B3
:100CE0001305450A130101016FF05FC003250500DC
:100CF00093F5F50F1305050AEFF0DFC30325040094
:100D000093D5840093F5F50F1305450AEFF09FC2C4
:100D10000325040093D5040193F5F50F1305850A07
:100D2000EFF05FC103250400032481008320C1008C
:100D300093D58401832441001305C50A13010101E1
:100D40006FF05FBF8320C100032481008324410032
:100D50001301010167800000B707004423A00700CA
:100D600067800000130101FF232481001384418860
:100D700083270400232611001385018E9387170013
:100D80002320F4009387818803A707001347F70007
:100D900023A0E70083A50700EFF05FED83250400A3
:100DA000032481008320C10017250000130585B8A6
:100DB000130101016F00800C130101FF9306100065
:100DC0001306A001B71500701385818E232611002C
:100DD000232481002322910023202101EFF01FBA58
:100DE00097270000938747DA03A507009384018AB9
:100DF0001384818EEF00800813062000B755007021
:100E00001385018EEFF0DFD4930500001385018E6A
:100E1000EFF0DFE5EFF09FA837F5FA0213050508BC
:100E200093050000EFF08FE5138901881306000495
:100E30009385018A13050400EFF01FBF2380A1886A
:100E40008347090093F7F70FE38207FE93850400B9
:100E500013050400EFF05FC9238001886FF01FFDC8
:100E600013030500630A06002300B3001306F6FF10
:100E700013031300E31A06FE67800000130101FC50
:100E8000232AF1022322B1022324C1022326D10204
:100E90002328E102232C0103232E110397270000AE
:100EA0009387C7CE232C810003A40700232A910037
:100EB000232E110093040500630A04008327840194
:100EC0006396070013050400EF00001883258400D3
:100ED0009306410213860400130504002326D10063
:100EE000EF00C05B8320C101032481018324410101
:100EF00013010104678000006FF01F94130101FFCC
:100F000023248100130405001385050093050600C2
:100F10001386060023A8018E23261100EFF09F9769
:100F20009307F0FF631AF5009387018F83A70700EB
:100F3000638407002320F4008320C1000324810080
:100F40001301010167800000130101FF23248100C8
:100F500023261100130405002316B5002317C5002E
:100F60002320050023220500232405002322050653
:100F700023280500232A0500232C050013068000E2
:100F8000930500001305C505EFF09FED97170000CE
:100F9000938787E92322F402971700009387C7ED10
:100FA0002324F40297170000938747F52326F402C1
:100FB00097170000938707FA232084022328F4025E
:100FC0008320C10003248100130101016780000018
:100FD00097150000938505476F004021130101FF1D
:100FE00023229100130680069384F5FFB384C40284
:100FF00023202101138905002324810023261100C9
:1010000093854407EF00C02913040500630005021F
:1010100023200500232225011305C5002324A40055
:101020001386840693050000EFF09FE31305040088
:101030008320C1000324810083244100032901008F
:101040001301010167800000832785016396070A69
:10105000130101FF232611002324810097070000BC
:10106000938747F72324F50297270000938787B0DB
:1010700083A7070023240504232605042328050449
:101080006316F50093071000232CF50013040500E8
:10109000EF00C0062322A40013050400EF000006A1
:1010A0002324A40013050400EF0040052326A40018
:1010B000032544001306000093054000EFF0DFE82D
:1010C000032584001306100093059000EFF0DFE77E
:1010D0000325C4001306200093052001EFF0DFE68E
:1010E00093071000232CF4008320C1000324810007
:1010F000130101016780000067800000130101FFF8
:1011000097270000938707A72322910083A4070055
:10111000232021012326110083A784012324810099
:10112000130905006396070013850400EFF0DFF153
:101130009384840403A4840083A744009387F7FF67
:1011400063DA070083A704006380070883A4040010
:101150006FF05FFE0317C40063140706B707FFFFB5
:10116000938717002322040623200400232204006F
:10117000232404002326F40023280400232A040047
:10118000232C040013068000930500001305C405FA
:10119000EFF01FCD232A0402232C0402232404048D
:1011A00023260404130504008320C10003248100C6
:1011B000832441000329010013010101678000001D
:1011C000130484066FF09FF7930540001305090090
:1011D000EFF0DFE023A0A40013040500E31805F6F8
:1011E0009307C0002320F9006FF0DFFB130101FD1E
:1011F0002324810223202103232C4101232A51018E
:101200002328610123267101232611022322910242
:10121000232E3101130A0500938A05001304850467
:1012200013090000130B1000930BF0FF631A040264
:101230008320C10203248102130509008324410293
:10124000032901028329C101032A8101832A410163
:10125000032B0101832BC1001301010367800000F0
:1012600083248400832944009389F9FF63D609000D
:10127000032404006FF09FFB83D7C400637EFB0050
:101280008397E400638A77019385040013050A00BD
:10129000E7800A003369A900938484066FF0DFFCBD
:1012A000130101FE232A91009384350093F4C4FFB7
:1012B000232E1100232C8100232821012326310114
:1012C000938484009307C00063F4F4069304C00081
:1012D00063E2B40613090500EF10403F9387C1880D
:1012E00003A7070013040700631A04069387018904
:1012F00083A70700639A0700930500001305090000
:10130000EF00102E23A8A18893850400130509007F
:10131000EF00102D9309F0FF631A350B9307C000FF
:101320002320F90013050900EF10803A6F00000137
:10133000E3D004FA9307C0002320F5001305000052
:101340008320C10103248101832441010329010178
:101350008329C10013010102678000008327040074
:10136000B387974063CE07049306B00063FAF60094
:101370002320F4003304F400232094006F000001C4
:1013800083274400631A870223A6F1881305090006
:10139000EF1000341305B40093074400137585FF64
:1013A0003307F540E30E07F83304E400B387A740A2
:1013B0002320F4006FF0DFF82322F7006FF01FFD09
:1013C00013070400032444006FF01FF213043500D8
:1013D0001374C4FFE30285FAB305A44013050900A2
:1013E000EF001020E31A35F96FF05FF383278600D2
:1013F0009387F7FF2324F60063DC070003278601A9
:1014000063C6E7009307A0006394F5006F00D03433
:101410008327060013850500138717002320E600A5
:101420002380B70067800000130101FE232C810098
:10143000232A91002328210123263101232441015D
:10144000232E1100130905009389050013040600DB
:10145000B304D600130AF0FF6316940013050000CE
:101460006F00C001834504001386090013050900BD
:10147000EFF0DFF713041400E31045FF8320C101F0
:101480000324810183244101032901018329C1002F
:10149000032A81001301010267800000130101F695
:1014A000232C8108232A9108232821092326310986
:1014B000232E1108232441092322510923206109E5
:1014C000232E7107232C8107232A910793090500F6
:1014D00093840500130906001384060063080500C1
:1014E0008327850163940700EFF01FB6971700006C
:1014F000938707606392F41283A4490083D7C400E2
:1015000093F78700638E071283A70401638A07128B
:1015100093070002A304F1029307000323220102B0
:101520002305F10223268100930B5002971A000035
:10153000938A0A60130C1000130BA0001304090017
:10154000834704006384070063907715B30C24413C
:1015500063860C0293860C00130609009385040031
:1015600013850900EFF05FEC9307F0FF6302F52CA1
:1015700083264102B38696012322D10283470400C9
:101580006388072A9307F0FF13091400232801003A
:10159000232E0100232AF100232C0100A3090104BA
:1015A00023240106834509001306500013850A0011
:1015B000EF10800F1304190083270101631A050C33
:1015C00013F707016306070013070002A309E104EC
:1015D00013F78700630607001307B002A309E104AD
:1015E000834609001307A0026380E60C8327C1012C
:1015F000130409009306000013069000034704003B
:1016000093051400130707FD6372E610638A060A48
:10161000232EF1006F00C00A971700009387474FF1
:101620006396F40083A489006FF05FED97170000C4
:101630009387074AE394F4EC83A4C9006FF01FEC8E
:101640009385040013850900EF009024E30205EC64
:101650001305F0FF8320C109032481098324410974
:10166000032901098329C108032A8108832A410823
:10167000032B0108832BC107032C8107832C41070F
:101680001301010A67800000130414006FF05FEB80
:10169000330555413315AC00B3E7A7002328F1000B
:1016A000130904006FF01FF00327C10093064700E1
:1016B000032707002326D10063400704232EE100FF
:1016C000034704009307E0026314F708034714007C
:1016D0009307A002631AF7048327C10013042400B0
:1016E0001387470083A707002326E10063CA070288
:1016F000232AF1006F00C0053307E04093E727007D
:10170000232EE1002328F1006FF09FFBB3876703CE
:101710009306100013840500B387E7006FF01FEEF7
:101720009307F0FF6FF0DFFC13041400232A01007D
:10173000930600009307000013069000034704007F
:1017400093051400130707FD637CE608E39206FA8D
:101750008345040013063000171500001305C53D2E
:10176000EF00907463040502971700009387C73C4D
:101770003305F54093070004B397A7000325010143
:10178000130414003365F5002328A10083450400E9
:1017900013066000171500001305453A13091400DD
:1017A0002304B102EF005070630E050897F7FF7F26
:1017B0009387478563980704032701018327C100A6
:1017C0001377071063080702938747002326F10069
:1017D00083274102B38747012322F1026FF01FD60E
:1017E000B38767039306100013840500B387E700EF
:1017F0006FF0DFF49387770093F787FF9387870075
:101800006FF0DFFC1307C10097060000938606C245
:101810001386040093050101138509009700000059
:10182000E70000009307F0FF130A0500E312F5FA42
:1018300083D7C40093F70704E39C07E00325410224
:101840006FF05FE11307C10097060000938606BEA4
:10185000138604009305010113850900EF00801B26
:101860006FF05FFC130101FD232A510183A70501DD
:10187000930A070003A785002324810223229102F3
:10188000232E3101232C4101232611022320210381
:1018900023286101232671019309050013840500A3
:1018A00093040600138A060063D4E7009307070039
:1018B00023A0F4000347340463060700938717004E
:1018C00023A0F4008327040093F70702638807002E
:1018D00083A704009387270023A0F40003290400B2
:1018E00013796900631E0900130B9401930BF0FF39
:1018F0008327C40003A70400B387E7406342F908C5
:10190000832704008346340493F70702B336D000DC
:101910006390070C1306340493050A00138509002D
:10192000E7800A009307F0FF6308F50683270400A9
:101930001306400003A7040093F767008326C40042
:10194000930400006398C700B384E64063D40400A6
:101950009304000083278400032704016356F700E3
:10196000B387E740B384F400130900001304A40113
:10197000130BF0FF63902409130500006F000002B1
:101980009306100013060B0093050A001385090047
:10199000E7800A00631A75031305F0FF8320C10274
:1019A0000324810283244102032901028329C10106
:1019B000032A8101832A4101032B0101832BC100EA
:1019C0001301010367800000130919006FF05FF233
:1019D0003307D40013060003A301C70403475404CC
:1019E00093871600B307F40093862600A381E704CB
:1019F0006FF05FF2930610001306040093050A00CF
:101A000013850900E7800A00E30865F91309190046
:101A10006FF05FF6130101FD23248102232291025E
:101A200023202103232E310123261102232C4101DF
:101A3000232A5101232861019389060083C6850169
:101A40009307E006130906009304050013840500BC
:101A5000138635046388F62863EAD70693073006B1
:101A6000638EF60A63EED700638C062A930780051F
:101A7000638AF61E930A24042301D4046F00800BAA
:101A8000930740066386F60093079006E394F6FEFC
:101A9000832704000325070093F6070893054500F4
:101AA000638E0608832705002320B70063D807004C
:101AB0001307D002B307F040A301E4049716000017
:101AC000938646081307A0006F00800D9307300728
:101AD000638EF62463E2D7029307F006638EF60660
:101AE00093070007E398F6F883A7050093E707023A
:101AF00023A0F5006F00400193075007638EF604A2
:101B000093078007E398F6F693078007A302F4048F
:101B100097160000938646046F0080158327070000
:101B2000938A25049386470083A707002320D700C4
:101B30002381F504930710006F00402293F60704F9
:101B4000832705002320B700E38206F69397070159
:101B500093D707416FF09FF5832504008327070083
:101B600013F8050813854700630808002320A70021
:101B700083A707006F00400193F505042320A70009
:101B8000E38805FE83D707001307F0066380E61499
:101B900097160000938606FB1307A000A301040418
:101BA000832544002324B40063C8050003250400F2
:101BB0001375B5FF2320A40063960700930A06005F
:101BC00063820502930A0600B3F5E702938AFAFFDF
:101BD000B385B60083C505002380BA00B3D5E702FC
:101BE00063FEE70E930780006314F7028327040067
:101BF00093F71700638E070003274400832704012F
:101C000063C8E70093070003A38FFAFE938AFAFFE5
:101C1000330656412328C4001387090093060900A0
:101C20001306C1009305040013850400EFF09FC361
:101C3000130AF0FF631A45131305F0FF8320C10256
:101C40000324810283244102032901028329C10163
:101C5000032A8101832A4101032B0101130101039E
:101C600067800000A382D50497160000938686ED56
:101C7000832504000325070013F8050883270500C2
:101C800013054500630808022320A70013F7150079
:101C90006306070093E505022320B4001307000143
:101CA000E39E07EE8325040093F5F5FD2320B400A1
:101CB0006FF0DFEE13F805042320A700E30808FC0B
:101CC0009397070193D707016FF05FFC9716000009
:101CD000938646E7130780006FF05FEC938705005B
:101CE0006FF09FEE83A605008327070083A54501BB
:101CF00013F8060813854700630A08002320A7008D
:101D000083A7070023A0B7006F0080012320A7004E
:101D100093F6060483A70700E38606FE2390B70028
:101D200023280400930A06006FF01FEF83270700A3
:101D300003A6450093050000938647002320D700A3
:101D400083AA070013850A00EF001016630605003A
:101D5000330555412322A400832744002328F4009F
:101D6000A30104046FF05FEB8326040113860A00CD
:101D70009305090013850400E7800900E30E45EB95
:101D80008327040093F72700639407048327C10087
:101D90000325C400E354F5EA138507006FF01FEA3A
:101DA0009306100013860A009305090013850400AA
:101DB000E7800900E30265E9130A1A008327C400DB
:101DC0000327C100B387E740E34CFAFC6FF01FFC28
:101DD000130A0000930A9401130BF0FF6FF01FFE2B
:101DE000130101FF2324810013040500138505005E
:101DF00023A8018E23261100EFE09FA09307F0FF98
:101E0000631AF5009387018F83A707006384070097
:101E10002320F4008320C100032481001301010169
:101E200067800000130101FF232481001384050053
:101E30008395E50023261100EF00101A6340050288
:101E400083274405B387A700232AF4048320C10015
:101E50000324810013010101678000008357C4003F
:101E600037F7FFFF1307F7FFB3F7E7002316F40078
:101E70006FF0DFFD83D7C500130101FE232C810025
:101E8000232A91002328210123263101232E11002A
:101E900093F7071093040500138405001309060047
:101EA00093890600638A07008395E5009306200066
:101EB00013060000EF00C0628357C40037F7FFFF2E
:101EC0001307F7FFB3F7E7002316F4008315E400C8
:101ED000032481018320C1019386090013060900B0
:101EE0008329C100032901011385040083244101D2
:101EF000130101026FF08F80130101FF2324810081
:101F0000138405008395E50023261100EF00405D52
:101F10009307F0FF0357C4006312F502B7F7FFFF02
:101F20009387F7FFB3F7E7002316F4008320C1007F
:101F3000032481001301010167800000B71700002E
:101F4000B367F7002316F400232AA4046FF01FFEE2
:101F50008395E5006F00C02B130101FE232C810047
:101F6000232A910023282101232E11002326310149
:101F70009304050013890500130406006308050097
:101F80008327850163940700EFF00F8C97170000FB
:101F9000938707B6631EF40A03A4440083278401D1
:101FA0002324F4008357C40093F787006386070C4B
:101FB000832704016382070C83270401032504009F
:101FC0009379F90F1379F90F3305F540832744010D
:101FD000634AF5009305040013850400EF004046B2
:101FE0006314050A83278400130515009387F7FF00
:101FF0002324F40083270400138717002320E40020
:102000002380370183274401638CA7008357C400D2
:1020100093F71700638E07009307A000631AF90077
:102020009305040013850400EF008041631E05043E
:102030008320C10103248101130509008324410188
:10204000032901018329C1001301010267800000F7
:10205000971700009387C7AB6316F40003A48400AE
:102060006FF0DFF397170000938787A6E318F4F269
:1020700003A4C4006FF09FF29305040013850400CD
:10208000EF000001E30A05F21309F0FF6FF05FFAB9
:10209000130101FF97170000938747AF2322910098
:1020A00083A407002324810023202101232611007B
:1020B0001309050013840500638A040083A78401C3
:1020C0006396070013850400EFE01FF897170000E0
:1020D000938707A26318F40403A444000317C40001
:1020E0009317070193D7070193F687006394060AB5
:1020F00093F60701639C0604930790002320F900E0
:10210000136707042316E4001305F0FF8320C100C2
:1021100003248100832441000329010013010101EC
:1021200067800000971700009387879E6316F4006E
:1021300003A484006FF09FFA9717000093874799D4
:10214000E31EF4F803A4C4006FF05FF993F74700AF
:10215000638C070283254403638C050093074404C2
:102160006386F50013050900EF00C056232A040218
:102170008357C4002322040093F7B7FD2316F4000D
:10218000832704012320F4008357C40093E78700CA
:102190002316F40083270401639007028357C400C9
:1021A0001307002093F707286388E70093050400CE
:1021B00013050900EF0040408357C40013F71700D0
:1021C000630C07028327440123240400B307F04073
:1021D000232CF4008327040113050000E39807F281
:1021E0008317C40013F70708E30207F293E7070415
:1021F0002316F4006FF05FF193F727001307000038
:1022000063940700032744012324E4006FF09FFC3C
:10221000130101FF23248100130405001385050029
:1022200023A8018E23261100EFE08FE19307F0FF32
:10223000631AF5009387018F83A707006384070063
:102240002320F4008320C100032481001301010135
:102250006780000083D7C500130101FE232C810095
:10226000232A9100232E1100232821012326310146
:1022700013F787009304050013840500631E0714F9
:1022800003A74500634AE00003A705046346E00096
:10229000130500006F00C0110327C402E30A07FE04
:1022A00003A904009396370123A0040063DE060A05
:1022B000032544058357C40093F74700638E070046
:1022C000832744003305F5408327440363860700D2
:1022D000832704043305F5408327C40283250402C1
:1022E000130605009306000013850400E78007002D
:1022F0009307F0FF0357C4006312F50283A604009E
:102300009307D00163E4D70CB707402093871700E9
:10231000B3D7D70093F71700638A070A832704010E
:10232000232204002320F4009317370163DC070005
:102330009307F0FF6316F50083A70400639407007A
:10234000232AA4048325440323A02401E38205F463
:10235000930744046386F50013850400EF0080377B
:10236000232A04026FF0DFF2832504029306100093
:102370001306000013850400E70007009307F0FF31
:10238000E31AF5F283A70400E38607F21307D001EE
:102390006386E700130760016396E70023A024012A
:1023A0006FF01FEF8357C40093E707042316F40070
:1023B0008320C101032481018324410103290101F8
:1023C0008329C1001301010267800000136707041D
:1023D0002316E4006FF0DFFD83A90501E38A09EA13
:1023E00003A9050093F7370023A0350133093941CC
:1023F000130700006394070003A745012324E400AA
:10240000E35820E983278402832504029306090008
:102410001386090013850400E7800700634CA000C1
:102420008357C4001305F0FF93E707042316F40055
:102430006FF01FF8B389A9003309A9406FF05FFC62
:1024400083A70501638A0708130101FE232C81007D
:10245000232E110013040500630C0500832785015A
:10246000639807002326B100EFE01FBE8325C1005B
:10247000970700009387C7676392F502832544009E
:102480008397C500638007041305040003248101BA
:102490008320C101130101026FF0DFDB9707000009
:1024A000938707676396F500832584006FF05FFDCF
:1024B000970700009387C761E394F5FC8325C40068
:1024C0006FF01FFC8320C10103248101130500006C
:1024D00013010102678000001305000067800000FF
:1024E000130101FF23248100130405001385050057
:1024F000930506001386060023A8018E23261100EB
:10250000EFE00FB89307F0FF631AF5009387018F90
:1025100083A70700638407002320F4008320C10001
:10252000032481001301010167800000130101F8F9
:10253000232A9106938405008395E500232C8106C8
:10254000232E11061304060063DE050083D7C400A2
:1025500023A0060093F70708639007049307004041
:102560006F00C003130681012326D100EF00802BEA
:102570008326C100E34C05FC0327C101B7F7000027
:10258000B3F7E70037E7FFFFB387E70093B717001C
:1025900023A0F6006FF09FFC930700042320F400B3
:1025A0008320C1070324810783244107130500000A
:1025B000130101086780000083D7C500130101FEE5
:1025C000232C8100232E1100232A9100232821018E
:1025D00093F72700138405006388070293077404A8
:1025E0002320F4002328F40093071000232AF4008A
:1025F0008320C101032481018324410103290101B6
:1026000013010102678000009306C10013068100D8
:1026100093040500EFF09FF1832581001309050065
:1026200013850400EFE0DFC7631005028317C400C1
:1026300013F70720E31E07FA93F7C7FF93E7270076
:102640002316F4006FF09FF997F7FFFF93878798A1
:1026500023A4F4028357C4002320A4002328A40049
:1026600093E707082316F40083278100232AF40048
:102670008327C100638207028315E40013850400E9
:10268000EF00C01E630A05008357C40093F7C7FF1D
:1026900093E717002316F4008357C4003369F90049
:1026A000231624016FF0DFF493F5F50F3306C50010
:1026B0006316C5001305000067800000834705000E
:1026C000E38CB7FE130515006FF09FFE67800000D6
:1026D000678000006380051083A7C5FF130101FF19
:1026E0002324810023261100232291001384C5FF97
:1026F00063D407003304F40093040500EFF01FFDDA
:102700009387C18883A707006392070223220400EE
:1027100023A68188032481008320C100138504003F
:1027200083244100130101016FF09FFA6376F402E4
:10273000832604003307D400639AE70003A7070049
:1027400083A747003307D7002320E4002322F400A7
:102750006FF01FFC9307070003A7470063040700FF
:10276000E37AE4FE83A607003386D7006318860267
:1027700003260400B386C60023A0D7003386D70003
:10278000E31AC7F80326070003274700B306D6005D
:1027900023A0D70023A2E7006FF0DFF76378C4001F
:1027A0009307C00023A0F4006FF0DFF603260400B7
:1027B000B306C400631AD700832607000327470027
:1027C000B386C6002320D4002322E40023A287007E
:1027D0006FF05FF467800000130101FF2324810084
:1027E00013040500138505009305060013860600F3
:1027F00023A8018E23261100EFE04F899307F0FFF5
:10280000631AF5009387018F83A70700638407008D
:102810002320F4008320C10003248100130101015F
:1028200067800000130101FF2324810013040500C9
:10283000138505009305060023A8018E23261100A9
:10284000EFE08F809307F0FF631AF5009387018F05
:1028500083A70700638407002320F4008320C100BE
:10286000032481001301010167800000130101FFAF
:1028700023248100130405001385050023A8018E7D
:1028800023261100EFD05FFB9307F0FF631AF500DA
:102890009387018F83A70700638407002320F40038
:1028A0008320C1000324810013010101678000001F
:1028B000FC060080040700800C07008014070080DD
:1028C0001C070080240700802C070080340700804C
:1028D0003C070080440700804C07008054070080BC
:1028E0005C070080640700806C070080740700802C
:1028F0007C070080840700808C070080940700809C
:102900009C070080A4070080AC070080B40700800B
:10291000BC070080C4070080CC070080D40700807B
:10292000DC070080E4070080EC070080F4070080EB
:102930000D0A496E7465726E616C2053797374650B
:102940006D2054696D657220496E74657272757080
:102950007420436F756E746572203D2025640000FD
:102960000D0A2A2A2A2A2A2A2A2A2A2A2A2A2A2A04
:102970002A2A2A2A2A2A2A2A2A2A2A2A2A2A2A2AB7
:102980002A2A2A2A2A2A2A2A2A2A2A2A2A2A2A2AA7
:102990002A2A2A2A2A2A2A2A2A2A2A2A2A2A2A2A97
:1029A0002A2A2A2A2A2A2A2A2A2A2A2A2A2A2A2A87
:1029B0000D0A0A2A2A2A2A2A2A2A2A2A2A2A2A2AD4
:1029C0002A2A2A2A2A2A2A202020204D692D562008
:1029D00053797374656D2054696D657220426C691A
:1029E0006E6B79204578616D706C65202020202AFF
:1029F0002A2A2A2A2A2A2A2A2A2A2A2A2A2A2A2A37
:102A00002A2A2A2A2A2A0D0A0A2A2A2A2A2A2A2A83
:102A10002A2A2A2A2A2A2A2A2A2A2A2A2A2A2A2A16
:102A20002A2A2A2A2A2A2A2A2A2A2A2A2A2A2A2A06
:102A30002A2A2A2A2A2A2A2A2A2A2A2A2A2A2A2AF6
:102A40002A2A2A2A2A2A2A2A2A2A2A2A2A2A2A2AE6
:102A50002A2A2A2A2A2A2A0D0A0D0A4F6273657227
:102A6000766520746865204C45447320626C696EFD
:102A70006B696E67206F6E2074686520626F61728B
:102A8000642E20546865204C454420706174746540
:102A9000726E206368616E67657320657665727912
:102AA0002074696D6520612073797374656D20747D
:102AB000696D657220696E74657272757074206FCD
:102AC00063637572732E0D0A0000000000000000A1
:102AD00000000000000000000000000000000000F6
:102AE00000000000000000000000000000000000E6
:102AF00000000000000000000000000000000000D6
:102B000000000000000000000000000000000000C5
:102B100000000000000000000000000000000000B5
:102B2000000000000000000000000000232D302BFA
:102B300020000000686C4C00656667454647000051
:102B400030313233343536373839414243444546E3
:102B500000000000303132333435363738396162A5
:102B600063646566000000000000000000000000D3
:042B7000902B008026
:102B8000802C008060290080902B008000000000D5
:102B900000000000EC2A00800C2B0080CC2A008072
:102BA0000000000000000000000000000000000025
:102BB0000000000000000000000000000000000015
:102BC0000000000000000000000000000000000005
:102BD00000000000000000000000000000000000F5
:102BE00000000000000000000000000000000000E5
:040000058000000077
:00000001FF
